:020000040800F2
:10000000C0060020650100083D120008D910000854
:1000100000000000000000000000000000000000E0
:100020000000000000000000000000004112000875
:1000300000000000000000003F120008431200080A
:100040007701000800000000770100087701000830
:1000500077010008770100087701000877010008A0
:100060000000000077010008770100087701000810
:100070007701000877010008770100080000000000
:100080007701000800000000000000007701000870
:1000900000000000770100087701000877010008E0
:1000A0007701000877010008770100087701000850
:1000B00077010008000000000000000000000000C0
:1000C00000F002F800F03EF80CA030C80838241800
:1000D0002D18A246671EAB4654465D46AC4201D180
:1000E00000F030F87E460F3E0FCCB6460126334274
:1000F00000D0FB1AA246AB4633431847D017000086
:10010000F0170000103A02D378C878C1FAD8520725
:1001100001D330C830C101D504680C6070470000BD
:100120000023002400250026103A01D378C1FBD813
:10013000520700D330C100D50B6070471FB51FBDFB
:1001400010B510BD00F0FAF81146FFF7F7FF01F007
:10015000D3FA00F012F903B4FFF7F2FF03BC00F08A
:1001600019F900000748804707480047FEE7FEE707
:10017000FEE7FEE7FEE7FEE704480549054A064BB1
:1001800070470000A5120008C1000008C000002050
:10019000C0060020C0020020C002002001E004C010
:1001A000091F0429FBD28B0701D50280801CC907D7
:1001B00000D00270704700290BD0C30702D0027034
:1001C000401C491E022904D3830702D50280801CEB
:1001D000891EE3E70022EEE70022DFE700220309A1
:1001E0008B422CD3030A8B4211D300239C464EE052
:1001F00003460B433CD4002243088B4231D303090E
:100200008B421CD3030A8B4201D394463FE0C309BF
:100210008B4201D3CB01C01A524183098B4201D3D7
:100220008B01C01A524143098B4201D34B01C01AC2
:10023000524103098B4201D30B01C01A5241C3083A
:100240008B4201D3CB00C01A524183088B4201D3A9
:100250008B00C01A524143088B4201D34B00C01A95
:100260005241411A00D201465241104670475DE0AA
:10027000CA0F00D04942031000D34042534000222D
:100280009C4603098B422DD3030A8B4212D3FC22D6
:10029000890112BA030A8B420CD3890192118B4255
:1002A00008D3890192118B4204D389013AD092116B
:1002B00000E08909C3098B4201D3CB01C01A524126
:1002C00083098B4201D38B01C01A524143098B42EF
:1002D00001D34B01C01A524103098B4201D30B01D8
:1002E000C01A5241C3088B4201D3CB00C01A5241FD
:1002F00083088B4201D38B00C01A5241D9D24308E4
:100300008B4201D34B00C01A5241411A00D2014620
:10031000634652415B10104601D34042002B00D58A
:100320004942704763465B1000D3404201B500204C
:10033000C046C04602BD704770477047754600F022
:1003400025F8AE46050069465346C008C0008546FC
:1003500018B020B5FFF710FF60BC00274908B6466B
:100360000026C0C5C0C5C0C5C0C5C0C5C0C5C0C5C4
:10037000C0C5403D49008D46704710B50446C04693
:10038000C0462046FFF7E7FE10BD0000004870475A
:100390005C00002001491820ABBEFEE726000200E9
:1003A0007047000070B5044600F0C2F80546601CB6
:1003B00002D004480078241800F0BAF8401BA0428C
:1003C000FAD370BD00000020F0B5002303249AE0AA
:1003D0002A4601259D402A407ED00E79B607B60FE9
:1003E000012E01D0022E16D186682746B4465E0043
:1003F000B646B7406646BE43B446CF687646B74079
:100400006646374387604668AE430D79ED06ED0FCB
:100410009D40354345600D79ED43AD0708D0C56873
:100420005F002646BE40B5438E68BE402E43C66080
:100430000D79AD07AD0F022D0ED1DD08AD002D18E1
:10044000AC462D6A5E07F60E0F27B740BD430F6915
:10045000B7402F4365462F6205685F002646BE40C1
:10046000B5430E79B607B60FBE402E4306604D6801
:10047000AD03AD0F46D09E08264DB6007519AC46AB
:100480002D6E9E07F60E0F27B740BD4305273F0789
:10049000B84201D100270FE01F4FB84201D1012718
:1004A0000AE01E4FB84201D1022705E01C4FB842B6
:1004B00001D1032700E00527B7402F43154D6646BD
:1004C00037662D684E689543F60200D51543114FE7
:1004D0003D607D68954300E014E04E68B60200D5AB
:1004E00015437D600B4D80356E684F689643BF03A2
:1004F00000D516436E602E684F689643FF0300D503
:1005000016432E605B1C0A681546DA4000D05FE790
:10051000F0BD000000180240000400500008005028
:10052000000C0050002A01D0816170478162704741
:100530000148806870470000000000200248816880
:1005400002788918816070470000002010B50848C3
:1005500000240168821511430160032000F00AF8AD
:10056000002801D0012401E000F028F8204610BD49
:100570000020024070B50F4E002431780546002956
:1005800015D07D20C000FFF729FE01460A4800680B
:10059000FFF724FE00F030FB002808D1042D06D21E
:1005A00000222946401E00F01FF8756000E001247B
:1005B000204670BD000000200C00002008B509484E
:1005C0000168012211430160006810400090054855
:1005D0004038C26B01040A43C263C06B08400090FC
:1005E00008BD00004010024010B501F063F810BDD6
:1005F00010B50F4C21680322520291430143216040
:10060000C11FFF39FA390ED10A4806210068484354
:100610000949FFF7E3FD401C02E0002805D0401E19
:1006200061694905F9D4002010BD032010BD000008
:10063000007000400C00002040420F00F8B50F464B
:10064000060043D04D4D28684007400FB84213D2F2
:100650002868C008C00038432860FFF769FF0446D7
:1006600005E0FFF765FF011B4548814261D8286816
:100670004007400FB842F4D13068424C81070DD595
:10068000400704D5A068072109030843A060A068BB
:100690000F2109028843B1680843A0603078C00781
:1006A00032D0706801280AD002280BD000280FD061
:1006B0003449403103280ED0C969890704E0216814
:1006C000890301E021688901002906DB0120F8BDCA
:1006D00021684905F8E7096AEFE7A168C908C90078
:1006E0000143A160FFF724FF009006E0FFF720FF21
:1006F0000099411A224881421BD8A068382108403D
:100700007168C9008842F1D128684007400FB8429B
:1007100017D91A480168C908C90039430160FFF7B1
:1007200007FF054607E0FFF703FF411B144881421E
:1007300001D90320F8BD114800684007400FB842B6
:10074000F1D13078400706D5A06807210903884316
:10075000F1680843A06000F01DF8A1683C228909F7
:100760001140094A515CC906C90EC84007490860D2
:1007700007480068FFF7FEFEF8BD000000200240B9
:1007800088130000001002408C1800080C000020A4
:100790000400002010B5204CA068204A8006400FBD
:1007A00016D0A0688006410F501001290FD0A16813
:1007B0008906490F022912D0A0688006400F04283C
:1007C00023D0A0688006400F032821D0002010BD50
:1007D000206801218004400F8140104612E0E1684A
:1007E0008B07E1689B0F4906490F491C032B00D07A
:1007F0001046FFF7F3FCE1684904490E4843E168FD
:10080000490F491CFFF7EAFC10BD0120C00310BDD1
:100810007D20000210BD0000001002400024F40002
:10082000F8B504007ED020783827C007E94D0028AD
:1008300046D0A868E96838408907890F102802D097
:1008400008280BD001E0032908D0012062680004C9
:1008500082420AD129680143296015E02868800393
:100860002ED560680028DDD02AE0052301211B0475
:1008700089049A422A6802D10A432A60EAE782433D
:100880002A60286888432860606800280CD0FFF739
:100890004FFE064604E0FFF74BFE801B642873D82A
:1008A00028688003F7D50BE0FFF742FE064604E018
:1008B000FFF73EFE801B6428F1D828688003F7D438
:1008C0002078800769D5A868E96838408A07072139
:1008D000920FC902102802D0002813D001E0022A8A
:1008E00010D0E068002846D0286888432169084372
:1008F00028602868FF21013108432860FFF718FEAF
:1009000006462CE02A68520502D5E268002A89D002
:100910006A687F231B029A4363691B021A436A6059
:10092000002800E08DE00ED1286888432169084343
:100930002860286801218004400F8140A648FFF705
:100940004DFCA6490860A6480068FFF713FE002882
:1009500077D122E0FFF7ECFD801B02289FD82868A2
:100960004005F7D568687F2109028843616909025B
:100970000843686011E02968FF2001308143296045
:10098000FFF7D6FD064605E098E0FFF7D1FD801B96
:10099000022884D828684005F7D42078914E0007B3
:1009A0002ED5A8688006400F03280AD0A069002829
:1009B000306A16D0012108433062FFF7B9FD0746BF
:1009C0000BE0306A80071BD5A06900289FD017E094
:1009D000FFF7AEFDC01B022870D8306A8007F7D53C
:1009E0000EE0400840003062FFF7A2FD074604E039
:1009F000FFF79EFDC01B022860D8306A8007F7D43D
:100A0000207840076CD5A86800278006400F04288E
:100A100018D0E86BC00008D4E96B0120000701433F
:100A2000E963E96B0140012700916F480168C9053E
:100A300019D40168821511430160FFF779FD009018
:100A40000DE083E0F06980074AD5A06800287DD0DA
:100A500046E0FFF76DFD0099401A02282ED8624843
:100A60000068C005F5D5A168012910D0042005292A
:100A7000F16911D049084900F161F1698143F161DF
:100A8000A068002816D0FFF753FD00900EE0F06933
:100A900001210843F061F3E70143F161F7E7FFF754
:100AA00047FD0099411A5148814265D8F069800795
:100AB000F5D50EE0FFF73CFD009007E05CE0FFF7A6
:100AC00037FD0099411A4948814255D8F06980079D
:100AD000F5D4002F04D0E96B012000078143E963BE
:100AE000E069002873D0A9688906490F02294DD012
:100AF000012636060228286805D0B0432860FFF793
:100B000017FD04463AE0B0432860FFF711FD0746A1
:100B100004E0FFF70DFDC01B02282DD828688001D6
:100B2000F7D4616A206AA26A0843E16A120211439B
:100B30000843216B0843E9682D4A11400843E860E7
:100B4000286830432860E868012100E03DE009079B
:100B50000843E860FFF7ECFC044604E0FFF7E8FC1C
:100B6000001B022808D828688001F7D52FE0FFF77E
:100B7000DFFC001B022801D90320F8BD2868800192
:100B8000F5D4E8681B490840E86020E00128F4D06B
:100B9000E868226A8107890F914216D17021626A42
:100BA0000140914211D17F21A26A09020140120243
:100BB00091420AD11F214904E26A0140914204D1C5
:100BC000400F216B4007884201D00120F8BD002072
:100BD000F8BD0000001002400024F4000C000020CA
:100BE0000400002040100240007000408813000004
:100BF0008C80C11FFCFFFEEF094910B5401E8842E2
:100C000001D9012010BD074C60610321081F00F0CD
:100C100051FD0020A06107202061002010BD0000D0
:100C2000FFFFFF0000E000E030B5034620331A7FED
:100C3000012A49D001221A770325CA682D02AA4346
:100C40008D6800682A430125AD02AA434D6800243F
:100C50002A430125ED02AA430D682A4301252D03ED
:100C6000AA430D692A4301256D03AA434D692A430E
:100C70000125AD03AA430D6B2A430F252D04AA437A
:100C80000D8B2D042A4301252D07AA43CD692A4344
:100C90000E4DA84214D10F252D05AA430D8D2D050B
:100CA0002A4301252D06AA430D6A2A4301256D0614
:100CB000AA434D6AC96A2A4301256D07AA430A431C
:100CC00042641C77002030BD022030BD002C014062
:100CD000F0B5034620331A7F012A24D001221A7767
:100CE00002225A7704686268A568104FBC4205D199
:100CF00016460F22120596434A6832437026B243C5
:100D00000E68164366600068B84202D0084A9042F6
:100D100004D1802289689543294381600120587756
:100D200000201877F0BD0220F0BD0000002C01402B
:100D30000004004070B505462C46022040340029CE
:100D400008D004290BD008290ED0E279012A10D04E
:100D5000012070BD2279012AFAD120710AE062795E
:100D6000012AF5D1607105E0A279012AF0D1A071C4
:100D700000E0E0710422286800F0E5FA2868416C80
:100D80000122D203114341640A49286801228842A2
:100D900002D00949884207D18168084B19400629C9
:100DA00005D0DB1F994202D0016811430160002089
:100DB00070BD0000002C014000040040070001004D
:100DC00070B5040005D025462035687F002802D084
:100DD00006E0012070BD00202877204600F016F8BC
:100DE00002206877211D206800F05EFA012240345D
:100DF0002272AA77EA7722706270A270E270227182
:100E00006271A271E2716A77002070BD08B5006856
:100E10000549884207D105480268C1140A430260A7
:100E200000680840009008BD002C014040100240BE
:100E3000F8B5054604462035287F0026012817D03E
:100E400001272F7702206877226890682F4B18407F
:100E5000FF231B02984390600868502838D00EDCAE
:100E600020284FD006DC00284CD010281ED149E0A5
:100E70000220F8BD302845D0402817D13AE060283C
:100E80002ED0702818D001221203801A0FD0904261
:100E90000CD1CB684A688968206800F061FA206844
:100EA0008168012292031143816000E001266F777F
:100EB000002028773046F8BDCB684A6889682068EA
:100EC00000F04EFA21688868772210438860EEE7C8
:100ED000CA684968206800F0ADFB5021206806E030
:100EE000CA684968206800F0C9FB6021206800F0EA
:100EF00043FADCE7CA684968206800F09BFB4021A0
:100F00002068F4E7226801461046F0E788FFCEFF2C
:100F100010B586B0044614216846FFF75DF90D4907
:100F20002068884214D10C48416B0122114341636F
:100F3000406B0221104005901002009000200290AA
:100F4000039001910491052069460007FFF73CFAE0
:100F500006B010BD002C01400010024070B50546DF
:100F600020352B7F0024012B0BD001232B770C2A5B
:100F70001ED008DC002A0FD0042A11D0082A06D17E
:100F800012E0022070BD102A16D0142A18D00124B5
:100F900000202877204670BD006800F0F7F9F7E7D9
:100FA000006800F033FAF3E7006800F06FFAEFE74B
:100FB000006800F0ABFAEBE7006800F0DBFAE7E767
:100FC000006800F005FBE3E770B5040005D0254696
:100FD0002035687F002802D006E0012070BD002087
:100FE0002877204600F016F802206877211D206837
:100FF00000F05AF9012240342272AA77EA7722706F
:101000006270A270E27022716271A271E2716A77FD
:10101000002070BD7047000030B505460223203027
:1010200000290ED0042911D02C464034082912D0B2
:101030000C2915D0102918D0E278012A1AD00120E5
:1010400030BD827F012AFAD1837714E0C27F012A62
:10105000F5D1C3770FE02278012AF0D123700AE09E
:101060006278012AEBD1637005E0A278012AE6D10B
:10107000A37000E0E3700122286800F057F9114ADC
:101080002868904205D01049884202D00F49884212
:1010900004D1416C0123DB03194341642868012119
:1010A000904202D00A4A904207D18268094B1A4006
:1010B000062A05D0DB1F9A4202D002680A4302606A
:1010C000002030BD002C0140004401400048014098
:1010D0000004004007000100FEE70000F0B587B003
:1010E00014216846FFF778F81848426B04210A4338
:1010F0004263426B0A400592416B012529434163DB
:10110000406B134E2840EC030590002221463046E8
:10111000FFF708FA05273F0700220F213846FFF79F
:1011200001FA009400240195029469463046039424
:10113000FFF74AF90F200090029469460195039445
:101140003846FFF741F907B0F0BD0000001002403B
:101150000008005010B59CB0002419941A941794FC
:101160001894149415941C210DA81694FFF734F8C4
:1011700034216846FFF730F82F482E4901600F21CF
:10118000846041600461FF214461F4318461C16085
:10119000FFF716FE002801D072B6FEE7012000031B
:1011A000179017A92448FFF743FE002801D072B614
:1011B000FEE72148FFF708FF002801D072B6FEE7DE
:1011C0001494159414A91C481694FFF781FD002867
:1011D00001D072B6FEE7602012940E940D900F9429
:1011E0001094119400220DA913941348FFF7B6FE32
:1011F000002801D072B6FEE701200094400305905C
:1012000001940294049400030394069407940990B3
:1012100008940A940B9469460C940748FFF704FD60
:10122000002801D072B6FEE70348FFF771FE1CB03C
:1012300010BD0000002C014010000020FEE77047A8
:10124000704710B5FFF77AF910BD10B592B0342190
:101250006846FEF7C1FF002401200D940E940F9400
:1012600040021094FFF7C4F902200090C0010390DF
:1012700040200590049407946846FFF7D1FA0028AF
:1012800001D072B6FEE707200D900E940F94002156
:1012900010940DA8FFF7D2F9002801D072B6FEE72E
:1012A00012B010BD7047000070B502681A4B1B4E9B
:1012B000984201D0B04203D17024A2434C6822432B
:1012C000174C184D984208D0B04206D0164EB04286
:1012D00003D0A04201D0A84204D103263602B24373
:1012E000CE6832438026B2434E6932438E68C6626E
:1012F0000E688662984203D0A04201D0A84201D174
:1013000009690163016804231943016001214161F6
:10131000BFF34F8F026070BD002C014000040040FD
:1013200000440140004801400020004010B5CB06B9
:10133000DB0E0121046A99408C430462016A9A40E1
:101340001143016210BD10B50B071B0F0421046A85
:1013500099408C430462016A9A401143016210BDB6
:1013600030B58468FF252D021B021343AC430B43A9
:101370002343836030BD00008268034B1A400A4358
:1013800007210A43826070478FFFCFFFF0B5056ADF
:10139000026A52085200026243688269174C224076
:1013A00092080C6892001443022295438A682A43EB
:1013B000134DA84205D0134EB04202D0124EB04297
:1013C00007D1066A0427BE4306620826B243CE68E8
:1013D0003243A84205D00B4DA84202D00A4DA84284
:1013E00006D103252D02AB434D691D438B692B4369
:1013F00043608461496841630262F0BD8FFFFEFF74
:10140000002C0140004401400048014070B5046ACE
:10141000026A10239A43026242688369174D2B4087
:1014200003252D02AB430D682D021D4320239C4351
:101430008B681B012343124CA04209D1046A402649
:10144000B44304628024A343CC682401234305E011
:101450000C4CA04202D00C4CA04208D10324A402A0
:10146000A2434C69A40014438A699200224342605B
:10147000856149688163036270BD0000FF8FFFFED4
:10148000002C0140004401400048014070B5056A4D
:10149000026AFF2301339A4302624268C369174C10
:1014A00023409B080C689B001C4301235B029D4367
:1014B0008B681B022B43124DA84209D1056A061501
:1014C000B5430562C514AB43CD682D022B4305E03F
:1014D0000C4DA84202D00C4DA84208D103252D0383
:1014E000AA434D692D0115438A6912012A434260BE
:1014F000C4614968C163036270BD00008FFFFEFFD5
:10150000002C0140004401400048014030B5046A0D
:10151000026A01231B039A4302624368C269114DA8
:101520002A4003252D02AA430D682D0215430122EE
:10153000520394438A68120322430B4CA04205D005
:101540000A4CA04202D00A4CA04205D10124A403B7
:10155000A3434C69A40123434360C5614968016406
:10156000026230BDFF8FFFFE002C014000440140AD
:101570000048014070B5036A026A01263604B2438E
:1015800002624268456D0E4C25400C682C43750084
:10159000AB430D892D041D430A4B984205D00A4BDD
:1015A000984202D0094B984203D14B69B2431B02C7
:1015B0001A434260446549688165056270BD000058
:1015C0008FFFFEFF002C0140004401400048014015
:1015D00070B5046A026A01231B059A4302624268DD
:1015E000436D104D2B400D682D021D4301235B05FB
:1015F0009C430B891E050C4B2643984205D00B4B90
:10160000984202D00A4B984206D101241346A40402
:101610004A69A34392021A43426045654968C1651D
:10162000066270BDFF8FFFFE002C014000440140A8
:101630000048014030B5036A046A6408640004622B
:101640000B4CA04205D00B4CA04202D00A4CA04249
:1016500003D1046A0425AC4304628469F025AC43D9
:10166000120122430A24A3430B438261036230BD6B
:10167000002C0140004401400048014030B5046A9C
:10168000036A1025AB430362094B984203D1036AF6
:101690004025AB43036283690F252D031203AB433F
:1016A0001A43A0239C43090121438261016230BD9A
:1016B000002C01408307FF22DB0E9A408907090EA8
:1016C0009940002808DB830809489B001B1818680C
:1016D00090430843186070470007000F08388308DC
:1016E00004489B001B18D86990430843D861704791
:1016F00000E400E000ED00E0FEF728FFFFF7A5FDA5
:10170000FFF7ECFCFFF726FD00214D48FFF712FB29
:101710000524240701254B4EED030022012120461C
:10172000FEF700FF002202212046FEF7FBFE00220A
:1017300004212046FEF7F6FE002208212046FEF78F
:10174000F1FE002229463046FEF7ECFE7D273F01E0
:101750003846FEF727FE012211462046FEF7E2FE3C
:10176000012202212046FEF7DDFE0122042120464F
:10177000FEF7D8FE012208212046FEF7D3FE012203
:1017800029463046FEF7CEFE3846FEF70BFE002215
:1017900001212046FEF7C6FE7F103846FEF702FE06
:1017A000012211462046FEF7BDFE002202212046FE
:1017B000FEF7B8FE3846FEF7F5FD0122022120466D
:1017C000FEF7B0FE002204212046FEF7ABFE3846AD
:1017D000FEF7E8FD012204212046FEF7A3FE0022C9
:1017E00008212046FEF79EFE3846FEF7DBFD01226B
:1017F00008212046FEF796FE002229463046FEF7D5
:1018000091FE3846FEF7CEFD012229463046FEF70E
:1018100089FE00210A48FFF7FFFB0A220021084841
:1018200000F012F87F103846FEF7BCFD002211468A
:10183000034800F009F83846FEF7B4FD6DE70000F4
:10184000100000200008005070B50D465A2A00D93B
:101850005A220468E06A6421401C5043FEF7BEFC33
:10186000002D09D0042D09D0082D09D00C2D09D048
:10187000102D09D0E06570BD606370BDA06370BDC0
:10188000E06370BD206470BDA06570BD0000000005
:101890000000000000000000000000000000000048
:1018A0000000000000000000000000000100000037
:1018B0000200000003000000040000000600000019
:1018C000070000000800000009000000EC180008F4
:1018D000000000201000000004010008FC180008AF
:1018E00010000020B00600002001000801000000E8
:0C18F00004000000000000000024F400D0
:04000005080000C12E
:00000001FF
