:020000040800F2
:100000008007002065010008711B0008991900088D
:1000100000000000000000000000000000000000E0
:10002000000000000000000000000000751B000838
:100030000000000000000000731B0008771B000890
:100040007701000800000000770100087701000830
:1000500077010008770100087701000877010008A0
:100060000000000077010008770100087701000810
:100070007701000877010008770100080000000000
:100080007701000800000000000000007701000870
:1000900000000000770100087701000877010008E0
:1000A000770100087701000877010008252A000879
:1000B00077010008000000000000000000000000C0
:1000C00000F002F800F03EF80CA030C80838241800
:1000D0002D18A246671EAB4654465D46AC4201D180
:1000E00000F030F87E460F3E0FCCB6460126334274
:1000F00000D0FB1AA246AB4633431847E82B00005A
:10010000082C0000103A02D378C878C1FAD85207F8
:1001100001D330C830C101D504680C6070470000BD
:100120000023002400250026103A01D378C1FBD813
:10013000520700D330C100D50B6070471FB51FBDFB
:1001400010B510BD00F0FAF81146FFF7F7FF02F006
:1001500093FC00F012F903B4FFF7F2FF03BC00F0C8
:1001600019F900000748804707480047FEE7FEE707
:10017000FEE7FEE7FEE7FEE704480549054A064BB1
:1001800070470000D91B0008C10000088001002052
:1001900080070020800300208003002001E004C0CD
:1001A000091F0429FBD28B0701D50280801CC907D7
:1001B00000D00270704700290BD0C30702D0027034
:1001C000401C491E022904D3830702D50280801CEB
:1001D000891EE3E70022EEE70022DFE700220309A1
:1001E0008B422CD3030A8B4211D300239C464EE052
:1001F00003460B433CD4002243088B4231D303090E
:100200008B421CD3030A8B4201D394463FE0C309BF
:100210008B4201D3CB01C01A524183098B4201D3D7
:100220008B01C01A524143098B4201D34B01C01AC2
:10023000524103098B4201D30B01C01A5241C3083A
:100240008B4201D3CB00C01A524183088B4201D3A9
:100250008B00C01A524143088B4201D34B00C01A95
:100260005241411A00D201465241104670475DE0AA
:10027000CA0F00D04942031000D34042534000222D
:100280009C4603098B422DD3030A8B4212D3FC22D6
:10029000890112BA030A8B420CD3890192118B4255
:1002A00008D3890192118B4204D389013AD092116B
:1002B00000E08909C3098B4201D3CB01C01A524126
:1002C00083098B4201D38B01C01A524143098B42EF
:1002D00001D34B01C01A524103098B4201D30B01D8
:1002E000C01A5241C3088B4201D3CB00C01A5241FD
:1002F00083088B4201D38B00C01A5241D9D24308E4
:100300008B4201D34B00C01A5241411A00D2014620
:10031000634652415B10104601D34042002B00D58A
:100320004942704763465B1000D3404201B500204C
:10033000C046C04602BD704770477047754600F022
:1003400025F8AE46050069465346C008C0008546FC
:1003500018B020B5FFF710FF60BC00274908B6466B
:100360000026C0C5C0C5C0C5C0C5C0C5C0C5C0C5C4
:10037000C0C5403D49008D46704710B50446C04693
:10038000C0462046FFF7E7FE10BD0000004870475A
:100390001C01002001491820ABBEFEE72600020028
:1003A000704772B6FEE70000F0B5002808D001469D
:1003B00020314A79022A05D00422C2630020087144
:1003C0000120F0BD026813685B085B0013600268DF
:1003D00013680E24A3431360426C1468FF23013397
:1003E0009C4314600C4A5568066C1C24264001246A
:1003F0002746B7403D435560826CC56C5560026D21
:10040000002A05D015689D431560826D406D4260DD
:100410004C7100200871F0BD00000240F8B50024C6
:10042000014620314A79022A03D00421C163012404
:100430002DE0026813685B085B00136002681368B4
:100440000E25AB431360426C1368FF250135AB43A7
:100450001360104A5568066C1C231E4001231F467A
:10046000B7403D435560826CC56C5560026D002AF3
:1004700006D016681D02AE431660426D856D55604C
:100480004B7100220A71816B002900D088472046F9
:10049000F8BD00000000024070B5044600F0C2F84C
:1004A0000546601C02D004480078241800F0BAF811
:1004B000401BA042FAD370BD18000020F0B5002305
:1004C00003249AE02A4601259D402A407ED00E79D9
:1004D000B607B60F012E01D0022E16D18668274628
:1004E000B4465E00B646B7406646BE43B446CF68E3
:1004F0007646B7406646374387604668AE430D7917
:10050000ED06ED0F9D40354345600D79ED43AD0798
:1005100008D0C5685F002646BE40B5438E68BE4021
:100520002E43C6600D79AD07AD0F022D0ED1DD084B
:10053000AD002D18AC462D6A5E07F60E0F27B740AA
:10054000BD430F69B7402F4365462F6205685F00C2
:100550002646BE40B5430E79B607B60FBE402E43C1
:1005600006604D68AD03AD0F46D09E08264DB6001F
:100570007519AC462D6E9E07F60E0F27B740BD438A
:1005800005273F07B84201D100270FE01F4FB842AF
:1005900001D101270AE01E4FB84201D1022705E030
:1005A0001C4FB84201D1032700E00527B7402F4375
:1005B000154D664637662D684E689543F60200D5A0
:1005C0001543114F3D607D68954300E014E04E688F
:1005D000B60200D515437D600B4D80356E684F68BF
:1005E0009643BF0300D516436E602E684F6896434E
:1005F000FF0300D516432E605B1C0A681546DA40DF
:1006000000D05FE7F0BD0000001802400004005079
:1006100000080050000C0050002A01D08161704792
:100620008162704701488068704700001800002010
:10063000024881680278891881607047180000209C
:1006400010B5084800240168821511430160032099
:1006500000F00AF8002801D0012401E000F028F899
:10066000204610BD0020024070B50F4E00243178A6
:100670000546002915D07D20C000FFF7AFFD0146DB
:100680000A480068FFF7AAFD00F0F6FB002808D131
:10069000042D06D200222946401E00F02BF875607A
:1006A00000E00124204670BD180000202400002036
:1006B00008B5094801680122114301600068104033
:1006C000009005484038C26B01040A43C263C06B06
:1006D0000840009008BD000040100240002805DBE3
:1006E000C106C90E0120884001490860704700001A
:1006F00000E100E010B502F09DF910BD10B50F4CFF
:10070000216803225202914301432160C11FFF3936
:10071000FA390ED10A480621006848430949FFF713
:100720005DFD401C02E0002805D0401E61694905BE
:10073000F9D4002010BD032010BD0000007000405F
:100740002400002040420F00F8B50446006800264F
:100750004D4D800358D54C4800274038C06BC00031
:1007600009D449484038C26B01040A43C263C06BD4
:100770000840012700904548016882151143016037
:10078000FFF750FF009005E0FFF74CFF0099401A7B
:10079000022825D83D480068C005F5D5E869032141
:1007A000090208400FD0616981420CD0E869032139
:1007B0000902EA698843012109040A43EA61EA69F6
:1007C0008A43EA61E861C0070FD0FFF72BFF009072
:1007D00008E0FFF727FF0099411A2D48814201D90F
:1007E000032609E0E8698007F3D5E86903210902D7
:1007F000884361690843E861002F05D022484038EA
:10080000C26B01048A43C2632078C00705D06869BF
:10081000616880088000084368612078800606D5FA
:100820006869032109038843A16808436861208837
:10083000400411D568692169800080080843686117
:10084000012120698907884206D10F484038C168D4
:10085000012212041143C1602088000512D5686985
:10086000032189038843E168084368610121E06846
:100870008903884206D104484038C1680122120425
:100880001143C1603046F8BD401002400070004086
:1008900088130000F8B50F46060043D04D4D286878
:1008A0004007400FB84213D22868C008C000384340
:1008B0002860FFF7B7FE044605E0FFF7B3FE011B13
:1008C0004548814261D828684007400FB842F4D1BA
:1008D0003068424C81070DD5400704D5A068072138
:1008E00009030843A060A0680F2109028843B1688A
:1008F0000843A0603078C00732D0706801280AD061
:1009000002280BD000280FD03449403103280ED0E4
:10091000C969890704E02168890301E02168890128
:10092000002906DB0120F8BD21684905F8E7096ABE
:10093000EFE7A168C908C9000143A160FFF772FE93
:10094000009006E0FFF76EFE0099411A22488142AE
:100950001BD8A068382108407168C9008842F1D1CD
:1009600028684007400FB84217D91A480168C908DB
:10097000C90039430160FFF755FE054607E0FFF760
:1009800051FE411B1448814201D90320F8BD114892
:1009900000684007400FB842F1D13078400706D5D3
:1009A000A068072109038843F1680843A06000F0AC
:1009B00031F8A1683C2289091140094A515CC906F5
:1009C000C90EC8400749086007480068FFF74CFE99
:1009D000F8BD000000200240881300000010024013
:1009E000842C0008240000201C0000200648074931
:1009F00000688968064A4904490F8900515CC906A4
:100A0000C90EC840704700002400002000100240BA
:100A1000C42C000810B5204CA068204A8006400F66
:100A200016D0A0688006410F501001290FD0A16890
:100A30008906490F022912D0A0688006400F0428B9
:100A400023D0A0688006400F032821D0002010BDCD
:100A5000206801218004400F8140104612E0E168C7
:100A60008B07E1689B0F4906490F491C032B00D0F7
:100A70001046FFF7B3FBE1684904490E4843E168BB
:100A8000490F491CFFF7AAFB10BD0120C00310BD90
:100A90007D20000210BD0000001002400024F40080
:100AA000F8B504007ED020783827C007E94D00282B
:100AB00046D0A868E96838408907890F102802D015
:100AC00008280BD001E0032908D001206268000447
:100AD00082420AD129680143296015E02868800311
:100AE0002ED560680028DDD02AE0052301211B04F3
:100AF00089049A422A6802D10A432A60EAE78243BB
:100B00002A60286888432860606800280CD0FFF7B6
:100B100089FD064604E0FFF785FD801B642873D835
:100B200028688003F7D50BE0FFF77CFD064604E05C
:100B3000FFF778FD801B6428F1D828688003F7D47C
:100B40002078800769D5A868E96838408A070721B6
:100B5000920FC902102802D0002813D001E0022A07
:100B600010D0E068002846D02868884321690843EF
:100B700028602868FF21013108432860FFF752FDF3
:100B800006462CE02A68520502D5E268002A89D080
:100B90006A687F231B029A4363691B021A436A60D7
:100BA000002800E08DE00ED12868884321690843C1
:100BB0002860286801218004400F8140A648FFF783
:100BC0000DFBA6490860A6480068FFF74DFD002808
:100BD00077D122E0FFF726FD801B02289FD82868E6
:100BE0004005F7D568687F210902884361690902D9
:100BF0000843686011E02968FF20013081432960C3
:100C0000FFF710FD064605E098E0FFF70BFD801B9F
:100C1000022884D828684005F7D42078914E000730
:100C20002ED5A8688006400F03280AD0A0690028A6
:100C3000306A16D0012108433062FFF7F3FC074603
:100C40000BE0306A80071BD5A06900289FD017E011
:100C5000FFF7E8FCC01B022870D8306A8007F7D580
:100C60000EE0400840003062FFF7DCFC074604E07D
:100C7000FFF7D8FCC01B022860D8306A8007F7D481
:100C8000207840076CD5A86800278006400F04280C
:100C900018D0E86BC00008D4E96B012000070143BD
:100CA000E963E96B0140012700916F480168C905BC
:100CB00019D40168821511430160FFF7B3FC00905D
:100CC0000DE083E0F06980074AD5A06800287DD058
:100CD00046E0FFF7A7FC0099401A02282ED8624888
:100CE0000068C005F5D5A168012910D004200529A8
:100CF000F16911D049084900F161F1698143F1615D
:100D0000A068002816D0FFF78DFC00900EE0F06977
:100D100001210843F061F3E70143F161F7E7FFF7D1
:100D200081FC0099411A5148814265D8F0698007D9
:100D3000F5D50EE0FFF776FC009007E05CE0FFF7EA
:100D400071FC0099411A4948814255D8F0698007E1
:100D5000F5D4002F04D0E96B012000078143E9633B
:100D6000E069002873D0A9688906490F02294DD08F
:100D7000012636060228286805D0B0432860FFF710
:100D800051FC04463AE0B0432860FFF74BFC0746AD
:100D900004E0FFF747FCC01B02282DD8286880011B
:100DA000F7D4616A206AA26A0843E16A1202114319
:100DB0000843216B0843E9682D4A11400843E86065
:100DC000286830432860E868012100E03DE0090719
:100DD0000843E860FFF726FC044604E0FFF722FC26
:100DE000001B022808D828688001F7D52FE0FFF7FC
:100DF00019FC001B022801D90320F8BD28688001D6
:100E0000F5D4E8681B490840E86020E00128F4D0E8
:100E1000E868226A8107890F914216D17021626ABF
:100E20000140914211D17F21A26A090201401202C0
:100E300091420AD11F214904E26A0140914204D142
:100E4000400F216B4007884201D00120F8BD0020EF
:100E5000F8BD0000001002400024F400240000202F
:100E60001C00002040100240007000408813000069
:100E70008C80C11FFCFFFEEF094910B5401E88425F
:100E800001D9012010BD074C60610321081F01F04A
:100E9000D1FD0020A06107202061002010BD0000CE
:100EA000FFFFFF0000E000E030B5034620331A7F6B
:100EB000012A49D001221A770325CA682D02AA43C4
:100EC0008D6800682A430125AD02AA434D680024BD
:100ED0002A430125ED02AA430D682A4301252D036B
:100EE000AA430D692A4301256D03AA434D692A438C
:100EF0000125AD03AA430D6B2A430F252D04AA43F8
:100F00000D8B2D042A4301252D07AA43CD692A43C1
:100F10000E4DA84214D10F252D05AA430D8D2D0588
:100F20002A4301252D06AA430D6A2A4301256D0691
:100F3000AA434D6AC96A2A4301256D07AA430A4399
:100F400042641C77002030BD022030BD002C0140DF
:100F5000F0B5034620331A7F012A24D001221A77E4
:100F600002225A7704686268A568104FBC4205D116
:100F700016460F22120596434A6832437026B24342
:100F80000E68164366600068B84202D0084A904274
:100F900004D18022896895432943816001205877D4
:100FA00000201877F0BD0220F0BD0000002C0140A9
:100FB0000004004070B505462C460220403400294C
:100FC00008D004290BD008290ED0E279012A10D0CC
:100FD000012070BD2279012AFAD120710AE06279DC
:100FE000012AF5D1607105E0A279012AF0D1A07142
:100FF00000E0E0710422286800F03FFE2868416CA0
:101000000122D203114341640A492868012288421F
:1010100002D00949884207D18168084B1940062946
:1010200005D0DB1F994202D0016811430160002006
:1010300070BD0000002C01400004004007000100CA
:1010400070B5040005D025462035687F002802D001
:1010500006E0012070BD00202877204600F016F839
:1010600002206877211D206800F0B8FD012240347D
:101070002272AA77EA7722706270A270E2702271FF
:101080006271A271E2716A77002070BD08B50068D4
:101090000549884207D105480268C1140A43026025
:1010A00000680840009008BD002C0140401002403C
:1010B000F8B5054604462035287F0026012817D0BC
:1010C00001272F7702206877226890682F4B1840FD
:1010D000FF231B02984390600868502838D00EDC2C
:1010E00020284FD006DC00284CD010281ED149E023
:1010F0000220F8BD302845D0402817D13AE06028BA
:101100002ED0702818D001221203801A0FD09042DE
:101110000CD1CB684A688968206800F0BBFD206864
:101120008168012292031143816000E001266F77FC
:10113000002028773046F8BDCB684A688968206867
:1011400000F0A8FD21688868772210438860EEE7E8
:10115000CA684968206800F007FF5021206806E04F
:10116000CA684968206800F023FF6021206800F009
:101170009DFDDCE7CA684968206800F0F5FE402163
:101180002068F4E7226801461046F0E788FFCEFFAA
:1011900010B586B0044614216846FFF71DF80D49C6
:1011A0002068884214D10C48416B012211434163ED
:1011B000406B022110400590100200900020029028
:1011C000039001910491052069460007FFF776F925
:1011D00006B010BD002C01400010024070B505465D
:1011E00020352B7F0024012B0BD001232B770C2AD9
:1011F0001ED008DC002A0FD0042A11D0082A06D1FC
:1012000012E0022070BD102A16D0142A18D0012432
:1012100000202877204670BD006800F051FDF7E7F8
:10122000006800F08DFDF3E7006800F0C9FDEFE70E
:10123000006800F005FEEBE7006800F035FEE7E728
:10124000006800F05FFEE3E770B5040005D02546B6
:101250002035687F002802D006E0012070BD002004
:101260002877204600F016F802206877211D2068B4
:1012700000F0B4FC012240342272AA77EA7722708F
:101280006270A270E27022716271A271E2716A777B
:10129000002070BD7047000030B5054602232030A5
:1012A00000290ED0042911D02C464034082912D030
:1012B0000C2915D0102918D0E278012A1AD0012063
:1012C00030BD827F012AFAD1837714E0C27F012AE0
:1012D000F5D1C3770FE02278012AF0D123700AE01C
:1012E0006278012AEBD1637005E0A278012AE6D189
:1012F000A37000E0E3700122286800F0B1FC114AFD
:101300002868904205D01049884202D00F4988428F
:1013100004D1416C0123DB03194341642868012196
:10132000904202D00A4A904207D18268094B1A4083
:10133000062A05D0DB1F9A4202D002680A430260E7
:10134000002030BD002C0140004401400048014015
:10135000000400400700010010B5014680310A7901
:10136000012A15D001220A7124228A6002681368BA
:101370001468640864001460012252079343002239
:10138000426600680360202088600A71104610BD24
:10139000022010BD7047704770B504460546803482
:1013A000207901281AD0012020712420A06028680B
:1013B00006680268520852000260286882680723A3
:1013C0005B069A430A438260284600F00DFE2868B7
:1013D00006602020A0600020207170BD022070BD3A
:1013E00070B50446054680342079012819D00120C3
:1013F00020712420A0602868066802685208520004
:10140000026028688268D200D2080A4382602846B7
:1014100000F0EAFD286806602020A060002020710E
:1014200070BD022070BD704770477047F8B5036803
:101430000446D96918689A68B94D0E462E4025466B
:101440008035002E75D0B74EB74F16400740374352
:101450006ED0CF0706D0C70504D501271F622B69C0
:101460003B432B618B0708D5D30706D0276802239F
:101470003B622B6904273B432B614B0708D5D307FD
:1014800006D0276804233B622B6902273B432B616C
:101490000B0709D520230340334305D026680823D2
:1014A00033622E691E432E610B0509D5430107D512
:1014B00001232668DB0233622B69202633432B612C
:1014C0002B69002B42D089060AD520210840C90586
:1014D0000A40104304D0616F002901D0204688479C
:1014E000286921688968490602D42821084232D037
:1014F000204600F063FE21688868400627D5EFF398
:101500001080012282F310888B68402293438B6005
:1015100080F310882868002819D0844981632868DE
:10152000FEF77CFF002811D02868816B0DE000E0F9
:1015300017E08E0615D5012720263F0706401740E5
:101540003E430ED0616FBFE020468847F8BD20467D
:10155000FFF76BFFF8BD2046FFF767FF002028610B
:10156000F8BDE66E012E7DD1CE067BD5C60679D5B7
:1015700010201862226890682646400640360028EF
:1015800057DA29680B6858680004000C45D0B78BFF
:10159000874242D9F08308680068800636D4EFF3AA
:1015A0001080012181F310881168FF2301339943D2
:1015B000116080F31088EFF31080012181F310880F
:1015C00021688A68520852008A6080F31088EFF31D
:1015D0001080012181F3108821688A6840239A4392
:1015E0008A6080F310882020E8600020E066EFF336
:1015F0001080012181F3108821680B681022934329
:101600000B6080F310882868FEF7CEFE022020676A
:10161000B08BF18B401A81B207E0B18B81429FD130
:10162000186880069CD5022020672046FFF7B2FE8E
:10163000F8BDB08BF18B401A81B2F08B0028F7D047
:101640000029F5D0EFF31080012383F3108813688D
:10165000FF262136B343136080F31088EFF3108028
:10166000012200E01BE082F31088226893682D4E6F
:10167000F6433340936080F310882020E860002018
:10168000E0666067EFF31080012282F31088226821
:1016900013681025AB43136080F31088C3E7CE02B4
:1016A00008D5560206D50120000518622046FFF72E
:1016B000BBFEF8BD0E060BD501278026FF050640B0
:1016C0003A40164304D0A16F002900D03CE7F8BD92
:1016D0004A0614D5420612D52046EFF310810122A6
:1016E00082F310881A684024A2431A6081F310889C
:1016F0002021A9600021816700F04DF9F8BD0A02A0
:1017000005D5420003D52046FFF78DFEF8BDC9017F
:10171000FCD50028FADA2046FFF73DFEF8BD0000B0
:101720000F0800000100001020010004B121000892
:1017300070B5040005D025468035A868002802D081
:1017400006E0012070BD00202871204600F026F838
:101750002420A86020680168490849000160A06A47
:10176000002802D0204600F061FC204600F0C8FFAF
:101770000128E7D0206841680922D20291434160E4
:10178000206881682A2291438160206801680122D3
:1017900011430160204600F0AFFC70BD10B58CB065
:1017A000044614216846FEF717FD182105A8FEF728
:1017B00013FD1A49206888422DD10120002405908C
:1017C000069405A8FEF7C0FF002801D0FEF7E9FD4A
:1017D00013480268012189030A4302600068084037
:1017E0000B900F484038426B02210A434263406B22
:1017F0006A4608400B90C02013C20394694609480A
:101800000494FEF75BFE002211461B20FEF772FFD8
:101810001B20FEF763FF0CB010BD00000038014034
:10182000401002400004005070B58C231B58202B40
:1018300001D0022070BD00290BD0002A09D001245C
:1018400083682403A34206D10369002B03D1CB078D
:1018500001D0012070BD0023C366046863681B02C9
:101860000BD5EFF31083012585F310882568012639
:10187000B6063543256083F3108800F0F5FF70BD90
:1018800010B500680B49884213D10B490A780D2A1C
:1018900005D00A4B48781A54401C487003E00020D9
:1018A0004870012048800548012203496030FFF755
:1018B000BBFF10BD003801400000002028000020C0
:1018C000FFB5064604468036B06883B00D46202832
:1018D00002D0022007B0F0BD002D3BD005980028B3
:1018E00038D00120A1680003814204D1206900287A
:1018F00001D1E8072ED1002030612120B060FEF731
:1019000091FE0190274640370598B8820598F882E5
:101910000120A1680003814202D12069002802D081
:101920000295002522E0002002901FE00022802185
:10193000204601F02FF8002825D1029800280BD06E
:101940002168007888620298401C0290B1682120CA
:10195000884308D00120BDE728882168C005C00D54
:101960008862AD1CF2E7F88A401EF882F88A019B73
:10197000002806980090D9D100224021204601F08D
:1019800009F8002803D02020B0600320A2E720201F
:10199000B06000209EE77047FEE70000F0B587B01A
:1019A00014216846FEF718FC1B48426B02210A43CB
:1019B0004263426B0A400592426B04210A43426330
:1019C000426B0A400592416B012529434163406BFC
:1019D000124E2840EC030590002221463046FEF7C7
:1019E0001BFE05273F0700220F213846FEF714FE95
:1019F0000094002401950294694630460394FEF752
:101A00005DFD0F20009002946946019503943846CD
:101A1000FEF754FD07B0F0BD001002400008005072
:101A200010B59CB0002419941A9417941894149427
:101A300015941C210DA81694FEF7CEFB34216846A0
:101A4000FEF7CAFB2F482E4901600F2184604160D8
:101A50000461FF214461F4318461C160FFF7F0FA51
:101A6000002801D072B6FEE701200003179017A9E5
:101A70002448FFF71DFB002801D072B6FEE721487D
:101A8000FFF7E2FB002801D072B6FEE7149415942C
:101A900014A91C481694FFF75BFA002801D072B60F
:101AA000FEE7602012940E940D900F941094119400
:101AB00000220DA913941348FFF790FB002801D0D2
:101AC00072B6FEE701200094400305900194029451
:101AD00004940003039406940794099008940A94CC
:101AE0000B9469460C940748FFF7DEF9002801D0F3
:101AF00072B6FEE70348FFF74BFB1CB010BD0000B9
:101B0000002C01403C00002010B518481649016027
:101B1000E1214902416000218160C1600161816170
:101B2000C16101620C22416242618162FFF700FEE5
:101B3000002801D072B6FEE700210C48FFF750FCE8
:101B4000002801D072B6FEE700210848FFF724FC08
:101B5000002801D072B6FEE70448FFF7FDFB00281D
:101B600001D072B6FEE710BD0038014088000020A9
:101B7000FEE77047704710B5FEF75AFD10BD10B56F
:101B800092B034216846FEF727FB002401200D9413
:101B90000E940F9440021094FEF7B0FD02200090C6
:101BA000C001039040200590049407946846FEF716
:101BB00077FF002801D072B6FEE707200D900E9443
:101BC0000F94002110940DA8FEF764FE002801D0A8
:101BD00072B6FEE712B010BD7047000070B5026823
:101BE0001A4B1B4E984201D0B04203D17024A2433D
:101BF0004C682243174C184D984208D0B04206D08A
:101C0000164EB04203D0A04201D0A84204D1032610
:101C10003602B243CE6832438026B2434E69324325
:101C20008E68C6620E688662984203D0A04201D0D8
:101C3000A84201D1096901630168042319430160C5
:101C400001214161BFF34F8F026070BD002C014044
:101C500000040040004401400048014000200040D2
:101C600010B5CB06DB0E0121046A99408C43046257
:101C7000016A9A401143016210BD10B50B071B0F9A
:101C80000421046A99408C430462016A9A4011431A
:101C9000016210BD30B58468FF252D021B0213437D
:101CA000AC430B432343836030BD00008268034B89
:101CB0001A400A4307210A43826070478FFFCFFF13
:101CC000F0B5056A026A52085200026243688269EE
:101CD000174C224092080C6892001443022295434C
:101CE0008A682A43134DA84205D0134EB04202D051
:101CF000124EB04207D1066A0427BE430662082688
:101D0000B243CE683243A84205D00B4DA84202D060
:101D10000A4DA84206D103252D02AB434D691D4350
:101D20008B692B4343608461496841630262F0BD63
:101D30008FFFFEFF002C014000440140004801409D
:101D400070B5046A026A10239A430262426883698A
:101D5000174D2B4003252D02AB430D682D021D436B
:101D600020239C438B681B012343124CA04209D1C2
:101D7000046A4026B44304628024A343CC6824014F
:101D8000234305E00C4CA04202D00C4CA04208D1E9
:101D90000324A402A2434C69A40014438A6992005C
:101DA00022434260856149688163036270BD00001F
:101DB000FF8FFFFE002C014000440140004801401D
:101DC00070B5056A026AFF2301339A4302624268D2
:101DD000C369174C23409B080C689B001C430123DC
:101DE0005B029D438B681B022B43124DA84209D115
:101DF000056A0615B5430562C514AB43CD682D02CF
:101E00002B4305E00C4DA84202D00C4DA84208D14E
:101E100003252D03AA434D692D0115438A6912013B
:101E20002A434260C4614968C163036270BD000017
:101E30008FFFFEFF002C014000440140004801409C
:101E400030B5046A026A01231B039A4302624368A5
:101E5000C269114D2A4003252D02AA430D682D02A7
:101E600015430122520394438A68120322430B4C08
:101E7000A04205D00A4CA04202D00A4CA04205D193
:101E80000124A403A3434C69A40123434360C56117
:101E900049680164026230BDFF8FFFFE002C0140E3
:101EA000004401400048014070B5036A026A0126FF
:101EB0003604B24302624268456D0E4C25400C6800
:101EC0002C437500AB430D892D041D430A4B9842EA
:101ED00005D00A4B984202D0094B984203D14B6976
:101EE000B2431B021A43426044654968816505623A
:101EF00070BD00008FFFFEFF002C01400044014038
:101F00000048014070B5046A026A01231B059A4328
:101F100002624268436D104D2B400D682D021D4337
:101F200001235B059C430B891E050C4B26439842FD
:101F300005D00B4B984202D00A4B984206D101249F
:101F40001346A4044A69A34392021A4342604565BA
:101F50004968C165066270BDFF8FFFFE002C01401D
:101F6000004401400048014030B5036A046A640837
:101F7000640004620B4CA04205D00B4CA04202D07E
:101F80000A4CA04203D1046A0425AC43046284696C
:101F9000F025AC43120122430A24A3430B43826180
:101FA000036230BD002C0140004401400048014064
:101FB00030B5046A036A1025AB430362094B9842AB
:101FC00003D1036A4025AB43036283690F252D03C8
:101FD0001203AB431A43A0239C43090121438261AE
:101FE000016230BD002C0140F8B50446416E40341A
:101FF000002915D000688168806809014D0F0A4EDC
:10200000400F3746315C083F385CC000FEF7E6F809
:102010006085785D715DC000FEF7E0F82085F8BD51
:1020200001206085FAE700007C2C000810B5018DC6
:10203000090707D501684A680123DB039A43836BCC
:102040001A434A60018DC90707D001684A68012315
:102050005B049A43C36A1A434A60018D890707D516
:1020600001684A6801231B049A43036B1A434A60C0
:10207000018D490707D501684A6801239B049A43EB
:10208000436B1A434A60018DC90607D502689168FF
:1020900001231B039943C36B19439160018D89068A
:1020A00007D501688A6801235B039A43036C1A43CE
:1020B0008A60018D490612D503685A680121090515
:1020C000446C8A4322435A60426C8A4207D10268B8
:1020D000516803235B059943836C19435160018D5B
:1020E000090607D501684A680123DB04C06C9A43DE
:1020F00002434A6010BD0000FEB50546002680354B
:1021000004462E61FEF78EFA0190206800682027B1
:102110000007002817DA25480090002239042046DD
:10212000019B00F037FC00280DD0EFF31080012157
:1021300081F3108821680A6880239A430A6080F33B
:102140001088AF6028E020680068400727D517484E
:1021500000900121002289052046019B00F01AFC15
:1021600000281CD0EFF31080012181F31088216832
:102170000A68FF2321339A430A6080F31088EFF343
:102180001080012181F3108821688A68520852006A
:102190008A6080F31088EF602E710320FEBDAF606F
:1021A000EF60E66626672E710020FEBDFFFFFF018F
:1021B00010B5806AFFF739F910BD000010B5EFF3D4
:1021C0001081012282F3108802681368FF242134F1
:1021D000A343136081F31088EFF31081012282F38F
:1021E0001088026893680D4C2340936081F3108837
:1021F000C16E01290BD1EFF31081012282F3108807
:10220000026813681024A343136081F3108820220E
:102210008C210A500021C166416710BDFEFFFFEF0F
:1022200070B501464031034680330C8CDD6802688E
:10223000222D04D0906908210843906170BD526A34
:10224000856D22402A80826D921C8265CA8B521E47
:10225000CA83CA8B002AF1D1EFF31082012484F3E0
:10226000108804682568FF262136B543256082F36F
:102270001088EFF31082012484F310880468A568A5
:102280006D086D00A56082F310882022DA600023BB
:10229000436703670468626812020BD5EFF310828C
:1022A000012585F3108825680126B606B54325600B
:1022B00082F31088C26E012A02D0FFF7E1FA70BDE6
:1022C000C366EFF31082012383F310880468256846
:1022D00010239D43256082F310880268D469E4438B
:1022E000E40600D41362898BFFF754F870BD000038
:1022F000F0B506460446403689B0308C019020681F
:10230000C769016806918168254680350491E968AE
:10231000222905D0816908221143816109B0F0BDED
:10232000308D05903DE02068406A019AA16D104013
:102330000880A06D801CA065F08B401EF083206893
:10234000C769790729D0F90707D00699C90504D5C7
:1023500001210162286908432861B80709D504985A
:10236000C00706D0216802200862286904210843BA
:102370002861780709D50498C00706D02168042091
:10238000086228690221084328612869002804D0CE
:102390002046FFF74AF800202861F08B002826D05D
:1023A0000598002801D0B806BDD4F08B0028B5D020
:1023B000318D8142B2D9EFF31080012181F3108871
:1023C00021688A6801231B079A438A6080F310887A
:1023D0002D486067EFF31080012181F31088216898
:1023E0000A6820231A430A6080F3108896E7EFF307
:1023F0001080012181F3108821680A68FF230133CE
:102400009A430A6080F31088EFF31080012181F372
:10241000108821688A681D4B1A408A6080F31088F2
:102420002020E8600021616721672268506800026F
:102430000BD5EFF31080012383F310881368012577
:10244000AD06AB43136080F31088E06E012803D023
:102450002046FFF715FAA8E7E166EFF310800121A7
:1024600081F310882268136810218B43136080F376
:1024700010882068C269D243D20600D40162B18BB1
:102480002046FEF787FF90E721220008FEFFFFEFBE
:1024900070B501464031034680330C8CDD6802681C
:1024A000222D04D0906908210843906170BD526AC2
:1024B0002240846D2270826D521C8265CA8B521E2E
:1024C000CA83CA8B002AF1D1EFF31082012484F36E
:1024D000108804682568FF262136B543256082F3FD
:1024E0001088EFF31082012484F310880468A56833
:1024F0006D086D00A56082F310882022DA60002349
:10250000436703670468626812020BD5EFF3108219
:10251000012585F3108825680126B606B543256098
:1025200082F31088C26E012A02D0FFF7A9F970BDAC
:10253000C366EFF31082012383F3108804682568D3
:1025400010239D43256082F310880268D469E44318
:10255000E40600D41362898BFEF71CFF70BD0000F7
:10256000F0B506460446403689B0308C01902068AC
:10257000C769016806918168254680350491E9683C
:10258000222905D0816908221143816109B0F0BD7B
:10259000308D05903DE02068406A01990840A16DAA
:1025A0000870A06D401CA065F08B401EF083206871
:1025B000C769790729D0F90707D00699C90504D555
:1025C00001210162286908432861B80709D50498E8
:1025D000C00706D021680220086228690421084348
:1025E0002861780709D50498C00706D0216804201F
:1025F000086228690221084328612869002804D05C
:102600002046FEF712FF00202861F08B002826D01C
:102610000598002801D0B806BDD4F08B0028B5D0AD
:10262000318D8142B2D9EFF31080012181F31088FE
:1026300021688A6801231B079A438A6080F3108807
:102640002D486067EFF31080012181F31088216825
:102650000A6820231A430A6080F3108896E7EFF394
:102660001080012181F3108821680A68FF2301335B
:102670009A430A6080F31088EFF31080012181F300
:10268000108821688A681D4B1A408A6080F3108880
:102690002020E860002161672167226850680002FD
:1026A0000BD5EFF31080012383F310881368012505
:1026B000AD06AB43136080F31088E06E012803D0B1
:1026C0002046FFF7DDF8A8E7E166EFF3108001216F
:1026D00081F310882268136810218B43136080F304
:1026E00010882068C269D243D20600D40162B18B3F
:1026F0002046FEF74FFE90E791240008FEFFFFEF13
:10270000F8B5044680682169E269084361690025DB
:1027100011432268084311684B4B19400143116073
:1027200020684168032212039143E268114341602B
:10273000A169206A084321688A68444B1A40024311
:102740008A602068C16A626A090909011143C1628D
:102750003F492068884211D13E4840698007800F78
:102760000FD0012806D0022802D003280BD103E0A5
:10277000022109E0042107E0082105E036498842EA
:1027800001D1002100E010210120E369C003334A98
:10279000334E344F834227D1002906D0022907D077
:1027A000042907D008293FD108E0FEF71FF903E00C
:1027B000104603E0FEF72EF900283AD0616A49007E
:1027C000715AFDF70BFD616840004A088018FDF75B
:1027D00005FD01461039B94226D82249491C01405D
:1027E0000007400F084322E0002906D0022907D045
:1027F000042907D0082917D108E0FEF7F7F803E00D
:10280000104603E0FEF706F9002812D0616A49007D
:10281000715AFDF7E3FC61684A088018FDF7DEFC99
:1028200001461039B94201D9012502E080B2216880
:10283000C860204601214030418501850020606745
:10284000A0672846F8BD0000F369FFCFFFF4FF1131
:102850000038014040100240004400400024F400D1
:102860005C2C0008EFFF0000F0B5816501464031A7
:102870008A83CA8300254567012483682403FF26D1
:10288000A34204D10369002B13D13D4B0AE07F27FB
:10289000002B09D001263607B3420CD10369002B67
:1028A00005D03F230B8407E00369002B01D00F8480
:1028B00002E00E8400E00D84034680331D61222572
:1028C000DD60EFF31083012585F310880568AE689D
:1028D00001273E43AE6083F31088436E7D07AB4211
:1028E00029D1098D914226D88168A14202D101697E
:1028F00000291DD023494167016900290CD0EFF35D
:102900001081012282F3108802681368FF240134C9
:102910002343136081F31088EFF31081012282F3C7
:1029200010880068826801231B071A43826023E035
:1029300015494167F0E78168A14202D10169002988
:102940000ED012494167016900290BD0EFF31081C5
:10295000012282F3108800680268FF23213309E016
:102960000B494167EFF31081012282F31088006860
:10297000026820231A43026081F310880020F0BD12
:10298000FF01000061250008F122000891240008E1
:1029900021220008FFB581B005460E460446803569
:1029A0000A9F32E0781C30D0FDF73CFE0499401AB3
:1029B000B84218D8002F16D020680168490724D5DE
:1029C000802E22D0402E20D0C169C94309070CD4E3
:1029D000082606622046FFF7F1FB2E6100202871D1
:1029E000012005B0F0BD0320FBE7C069C04300052E
:1029F0000BD401202168C00208622046FFF7DEFBED
:102A00002020286100202871EDE72068C169304648
:102A1000884305D0002103988142C3D00020E0E71D
:102A20000121F8E710B50248FEF700FD10BD0000D7
:102A3000880000208307FF22DB0E9A408907090ED9
:102A40009940002808DB830809489B001B18186878
:102A500090430843186070470007000F0838830848
:102A600004489B001B18D86990430843D8617047FD
:102A700000E400E000ED00E0FDF7E2FDFFF77FF885
:102A8000FEF78CFFFEF7CCFFFFF73EF800215F4812
:102A9000FEF790FA5D48642314225D494C30FEF73E
:102AA0000FFF5B4959480122091F4C30FEF7BCFE5D
:102AB000052424070125ED03002201212046FDF70E
:102AC000ABFD002202212046FDF7A6FD00220421D5
:102AD0002046FDF7A1FD002208212046FDF79CFDC0
:102AE0004C4E002229463046FDF796FD7D273F01DA
:102AF0003846FDF7D1FC012211462046FDF78CFD3A
:102B0000012202212046FDF787FD012204212046F3
:102B1000FDF782FD012208212046FDF77DFD0122FF
:102B200029463046FDF778FD3846FDF7B5FC002212
:102B300001212046FDF770FD7F103846FDF7ACFC03
:102B4000012211462046FDF767FD002202212046A2
:102B5000FDF762FD3846FDF79FFC01220221204669
:102B6000FDF75AFD002204212046FDF755FD3846A9
:102B7000FDF792FC012204212046FDF74DFD0022C5
:102B800008212046FDF748FD3846FDF785FC012267
:102B900008212046FDF740FD002229463046FDF77A
:102BA0003BFD3846FDF778FC012229463046FDF70B
:102BB00033FD00211548FEF76FFB32220021134838
:102BC00000F02AF83846FDF767FC002211460F484E
:102BD00000F022F87810FDF75FFC0D4E361F70886C
:102BE000002800D168E7094A0020311D143A135C1F
:102BF0000B54401C1428FADB0448642314220449B3
:102C00004C30FEF75DFE0020708055E73C00002050
:102C1000040000200008005070B50D465A2A00D963
:102C20005A220468E06A6421401C5043FDF7D6FA3A
:102C3000002D09D0042D09D0082D09D00C2D09D064
:102C4000102D09D0E06570BD606370BDA06370BDDC
:102C5000E06370BD206470BDA06570BD010002001E
:102C60000400060008000A000C00100020004000CC
:102C700080000001010101030701000008040204B3
:102C80000801010100000000000000000000000039
:102C90000000000000000000000000000000000034
:102CA000000000000100000002000000030000001E
:102CB00004000000060000000700000008000000FB
:102CC00009000000000000000000000000000000FB
:102CD00000000000010000000200000003000000EE
:102CE00004000000042D000800000020280000005F
:102CF000040100082C2D00082800002058070000BF
:102D0000200100080000000058696E204368616FD0
:102D10002121000000000000000000000100000070
:0C2D200004000000000000000024F4008B
:04000005080000C12E
:00000001FF
