:020000040800F2
:10000000380A0020C1010008F12A0008BD280008B4
:1000100000000000000000000000000000000000E0
:10002000000000000000000000000000D12C0008CB
:100030000000000000000000F32A0008D32C000894
:10004000D301000800000000D3010008D30100081C
:10005000D3010008D3010008D3010008D301000830
:10006000000000007D0D00088D0D0008D301000880
:10007000D3010008D3010008D301000800000000EC
:10008000D30100080000000000000000D3010008B8
:1000900000000000D3010008D3010008D3010008CC
:1000A000D3010008D3010008D3010008653B000814
:1000B000D301000800000000000000000000000064
:1000C00000F002F800F050F80CA030C808382418EE
:1000D0002D18A246671EAB4654465D46AC4201D180
:1000E00000F042F87E460F3E0FCCB6460126334262
:1000F00000D0FB1AA246AB46334318478C4300009E
:10010000AC430000103A02D378C878C1FAD852073D
:1001100001D330C830C101D504680C6070470000BD
:100120000023002400250026103A01D378C1FBD813
:10013000520700D330C100D50B60704710B5642959
:1001400002D100F095F810BD752902D100F090F8A9
:1001500010BD782902D100F0C1F810BD002010BDFB
:100160001FB51FBD10B510BD00F06DFB1146FFF7A8
:10017000F7FF03F037FD00F085FB03B4FFF7F2FF54
:1001800003BC00F08BFB000070B505460C4616461C
:1001900002E00FCC0FC5103E102EFAD2082E02D36B
:1001A00003CC03C5083E042E07D301CC01C5361F7E
:1001B00003E021782970641C6D1C761EF9D270BD95
:1001C0000748804707480047FEE7FEE7FEE7FEE7EF
:1001D000FEE7FEE704480549054A064B7047000064
:1001E000352D0008C100000838040020380A00201E
:1001F00038060020380600200FB41CB5074B06AAAD
:100200007B4469460090059800F0F1FA00206946A9
:1002100000F000FB1CBC08BC04B01847110600002D
:1002200070B5044685690068C10601D5302600E036
:100230002026C00707D070BD62683046A16890478D
:10024000206A401C20626D1EF6D570BD70B5044654
:1002500085690078C00707D170BD6268A168202059
:100260009047206A401C20626D1EF6D570BD0000CC
:10027000F7B5002575291068009914A611D0C0465D
:10028000C046002802DA404211A608E00099096839
:100290008A0701D50FA602E0490704D50EA601255D
:1002A00001E0C046C046009F0024243704E000F06F
:1002B000B6FA30313955641C0028F8D12B46324645
:1002C0002146009800F036FAFEBD00000000000054
:1002D0002D0000002B0000002000000070B5044637
:1002E0000D4621461068C046C0462188090502D542
:1002F0000F4A7A4402E00E4A7A440E322346002125
:10030000243305E006070009360F965D5E54491C4C
:100310000028F7D120780023000705D5702D03D0E1
:10032000002901D002231132204600F003FA70BDEB
:1003300056410000F3B50446002081B020622046FB
:10034000E1688847002872D0252802D06268A16839
:10035000ABE0594F00267F442046E16888472028BB
:10036000054608DB312D06D27819203800780028A0
:1003700001D00643F0E7B00701D5042086430020F2
:10038000E0610746A0612A2D0AD0284603F022FC2E
:10039000002827D0B8000019303D0090856119E091
:1003A0000298BA00121902C8916102902046E168D1
:1003B0008847012F054617D1E06900281FDA202061
:1003C00086431CE000980A2180694843009940193F
:1003D000303888612046E1688847054603F0FAFB1B
:1003E0000028EFD1012F0AD02E2D08D12046E16838
:1003F00088470546202006437F1C022FC3DBA069E7
:10040000002803DA4042A06101200643F00701D032
:10041000102086436C2D0BD0682D09D04C2D3CD07C
:100420006A2D38D0742D38D07A2D36D016E040E0C1
:10043000E1682F4620468847B842054609D16C2F0F
:1004400029D001208002E1680643204688470546FE
:1004500004E06C2F1DD0FF2001300643002D28D072
:1004600028464138192803D80120C0020643203508
:10047000204626602946029A1646FFF75FFE0028AE
:1004800010D001280BD0F61DF008C00008300290F3
:1004900055E74020E1E78020D5E70020D3E7361D6F
:1004A00002964CE762682846A1689047206A401C83
:1004B00044E7206AFEBD00001A41000030B5441C2C
:1004C00003E00178401C00290DD08107F9D10B4BC6
:1004D000DD0104C8D11A91432940FAD0001B0A0655
:1004E00003D0C01E30BD001B30BD0A0401D0801EE9
:1004F00030BD0902FCD0401E30BD000001010101E9
:10050000F8B5042A2CD3830712D00B78491C03704A
:10051000401C521E83070BD00B78491C0370401CF3
:10052000521E830704D00B78491C0370401C521ED6
:100530008B079B0F05D0C91ADF002023DE1B08C9DB
:100540000AE0FFF721FEF8BD1D4608C9FD401C4624
:10055000B4402C4310C0121F042AF5D2F308C91A64
:10056000521EF0D40B78491C0370401C521EEAD472
:100570000B78491C0370401C012AE4D409780170EF
:10058000F8BDD2B210B513029A1813049A1800F0ED
:100590000EF810BD01E004C0091F0429FBD28B072F
:1005A00001D50280801CC90700D002707047002965
:1005B0000BD0C30702D00270401C491E022904D38D
:1005C000830702D50280801C891EE3E70022EEE744
:1005D0000022DFE7002203098B422CD3030A8B425F
:1005E00011D300239C464EE003460B433CD400222B
:1005F00043088B4231D303098B421CD3030A8B423D
:1006000001D394463FE0C3098B4201D3CB01C01A0A
:10061000524183098B4201D38B01C01A52414309D5
:100620008B4201D34B01C01A524103098B4201D3C3
:100630000B01C01A5241C3088B4201D3CB00C01A30
:10064000524183088B4201D38B00C01A52414308A8
:100650008B4201D34B00C01A5241411A00D20146CD
:100660005241104670475DE0CA0F00D04942031066
:1006700000D34042534000229C4603098B422DD3B5
:10068000030A8B4212D3FC22890112BA030A8B425D
:100690000CD3890192118B4208D3890192118B42AC
:1006A00004D389013AD0921100E08909C3098B4231
:1006B00001D3CB01C01A524183098B4201D38B0174
:1006C000C01A524143098B4201D34B01C01A524117
:1006D00003098B4201D30B01C01A5241C3088B425C
:1006E00001D3CB00C01A524183088B4201D38B0047
:1006F000C01A5241D9D243088B4201D34B00C01AD1
:100700005241411A00D20146634652415B101046E5
:1007100001D34042002B00D54942704763465B102D
:1007200000D3404201B50020C046C04602BD70471C
:1007300070477047FFB504460D4681B024300090E5
:100740002168880604D51022E0699143216000E009
:100750000120A84201DD471B00E000270498A169A1
:100760007A191018081AA0612078C00602D4204611
:10077000FFF756FD002608E003986268A168805DD7
:100780009047206A401C761C206204988642F3DB66
:100790002078C0060AD52046FFF742FD06E06268D1
:1007A000A16830209047206A401C206238467F1E96
:1007B0000028F4DC07E000986268A168405D90477B
:1007C000206A401C206228466D1E0028F3DC20466B
:1007D000FFF73CFD2078000602D5022005B0F0BDF1
:1007E0000120FBE701694A1C02610878704700B5E7
:1007F0008FB002910021059105490193794403913D
:10080000114604906846FFF795FD0FB000BD00004B
:10081000E5FFFFFF0A681070521C0A60704701462E
:100820008008081A02091018020A1018020C101881
:10083000C008820012185200891A01E0401C0A39CF
:100840000A29FBD27047754600F024F8AE46050031
:1008500069465346C008C000854618B020B5FFF76A
:10086000B9FC60BC00274908B6460026C0C5C0C513
:10087000C0C5C0C5C0C5C0C5C0C5C0C5403D490094
:100880008D46704710B50446C046C0462046FFF767
:1008900074FC10BD00487047D8030020014918209F
:1008A000ABBEFEE726000200704700001CB508A0A2
:1008B00000680190694601A800F0BCF9002803D146
:1008C00000980078552801D006201CBD00201CBDD2
:1008D000550000007CB505460AA000680C46019052
:1008E000694601A800F0A6F9002801D006207CBDC9
:1008F000009908788028FAD12960009840782080F3
:1009000000207CBD0402022B1CB5044601A96846E8
:1009100000F01EF8002806D1009908222046091D83
:10092000FFF7EEFD00201CBD70B50C46054600F03B
:1009300055F8002801D0062070BD204600F072F85E
:100940000028F9D12068407B2870002070BD00008D
:100950003EB50C4605461EA103C9029101906946A9
:1009600001A800F067F9002801D006203EBD0098DC
:100970000278802A26D0863A130003F0FBF8090695
:10098000080B0E1114171A1D200013483EBD124803
:10099000401C3EBD1048801C3EBD0F48C01C3EBDE3
:1009A0000D48001D3EBDFB20C0003EBD0A48801D15
:1009B0003EBD0948C01D3EBD074808303EBD3F2032
:1009C00040013EBD286000984078208000203EBD58
:1009D0000403260100000000D30700001CB510A08E
:1009E00000680024019000F007F900F0C7F869469C
:1009F00001A800F01FF9002803D1009800785528BD
:100A00000CD000F0BBF800980078552804D02046A0
:100A1000641CA4B20528EAD306201CBD00201CBD1E
:100A20005500000038B504460DA00068009021462E
:100A3000684600F0FFF8002801D0062038BD206885
:100A4000407B30280AD0312808D0322806D03328FD
:100A500004D0342802D07D20000138BD002038BDEC
:100A60000100000030B50C460DA32ECB85B00495D7
:100A700001AD0EC56946087401A800F0DBF8002836
:100A800002D0062005B030BD009908788028F9D141
:100A900004222046C91CFFF733FD0020F2E70000C6
:100AA000040B2220C88415B4500104E000000000AB
:100AB000F8B50E46074640210C48FFF787FD0B4D61
:100AC000002469462046FFF7CDFF00280DD1A00085
:100AD000401904226946FFF713FD641CE4B2102C90
:100AE000EFD340203D6030800020F8BD3F01002062
:100AF00070B5204CA0B0FE21217000256570052640
:100B0000360704602A461021304600F05FFB0220C1
:100B100000F0F4F8FF2000F0F1F82070552815D00F
:100B2000FF2813D0FF2000F0E9F86070002816D0ED
:100B3000054680281BD8FF2229466846FFF721FD7D
:100B40002946A21C684600F0CBF808E06570FF203B
:100B500000F0D4F8A070FF2000F0D0F8E07001227F
:100B60001021304600F032FB002020B070BD02485A
:100B7000FBE7000040000020D907000010B5052465
:100B8000240701221021204600F020FB012000F064
:100B90005DFA00221021204600F018FB012000F031
:100BA000ADF801221021204600F010FB032000F0D8
:100BB0004DFA00F021F80A2000F048FA10BD0000BC
:100BC00038B50C460546FFF771FE002803D0FFF745
:100BD00005FF002809D107A0006800906846C5708D
:100BE000214600F027F8002801D0062038BD2068F3
:100BF000007838BD0202010170B501220525D4023A
:100C00002D072146284600F0E1FA012000F01EFAE7
:100C100000222146284600F0D9FA012000F016FAF9
:100C200001222146284600F0D1FA642000F00EFA95
:100C300070BD0000F0B50E462749C1B0FE220A7013
:100C400000224A700527044631603F0710213846CC
:100C500000F0BCFA002000F051F82078552809D0A7
:100C60006078801CFF2823D8C1B26A46204600F075
:100C700037F802E0552000F041F8012210213846F3
:100C800000F0A4FA002422461021384600F09EFA13
:100C9000032000F033F8054600070BD50122102190
:100CA000384600F093FA3046FFF722FF41B0F0BD1E
:100CB0000A48FBE70A2000F0C9F9082D04D02046B5
:100CC000641CE4B21E28E3D301221021384600F050
:100CD0007DFA0620EAE7000040000020D907000066
:100CE00008B57D23DB0000930B46014602480068EF
:100CF00000F07AFF08BD0000140000200EB5694620
:100D00000872002008717D20C00000900448012373
:100D100001AA02A9006800F067FF694608790EBDC4
:100D20001400002030B587B00C46054614220EA1F1
:100D30006846FFF729FA69460D7320784873607892
:100D40008873A078C873E078087405A96846FFF72F
:100D500071FF002802D0FD2007B030BD059908784A
:100D60008028F9D18878F7E7040F2221C88415B4C8
:100D7000500104E0000000000000000010B502482F
:100D800000F0B6F810BD00007C03002010B5034849
:100D900000F0AEF8024800F0ABF810BDC40200202D
:100DA0002003002010B50446006C0949800880002B
:100DB00040186064207814210838FFF70BFC0449C0
:100DC0008031A164C106C90E01208840E06410BDD5
:100DD000000802400179084B8906890E8A00D21862
:100DE0000265054A4432491E42658A07920F012175
:100DF0009140816570470000FC08024072B6FEE732
:100E0000F0B5002808D0014620314A79022A05D0E1
:100E10000422C263002008710120F0BD026813683B
:100E20005B085B001360026813680E24A343136021
:100E3000426C1468FF2301339C4314600C4A5568CC
:100E4000066C1C24264001242746B7403D435560CC
:100E5000826CC56C5560026D002A05D015689D43F3
:100E60001560826D406D42604C7100200871F0BDCC
:100E700000000240F8B50024014620314A79022AD8
:100E800003D00421C16301242DE0026813685B08CC
:100E90005B001360026813680E25AB431360426C5D
:100EA0001368FF250135AB431360104A5568066C83
:100EB0001C231E4001231F46B7403D435560826CF2
:100EC000C56C5560026D002A06D016681D02AE433F
:100ED0001660426D856D55604B7100220A71816B01
:100EE000002900D088472046F8BD000000000240DD
:100EF000F0B42C490C6802681368056C1C273D404F
:100F00000426AE40264211D05E070FD513689B061B
:100F100003D4146804239C4314604B68046C0422BB
:100F20003C40A24013434B60016B1CE00227AF40E2
:100F3000064627402036002F19D09F0717D5136883
:100F40009B0605D413680A24A3431360012272711F
:100F50004B68046C1C2214400222A24013434B60D5
:100F600000213171C16A00291AD0F0BC0847082756
:100F7000AF40274214D01B0712D513680E24A34399
:100F800013604B68046C1C22144001221546A540D6
:100F90002B434B60C263727100213171416BE2E7F8
:100FA000F0BC70470000024070B504003FD02548F7
:100FB000256814212818FFF70DFB8000206402200B
:100FC00026462036707128681F4908402860E1686D
:100FD000A06862690843216911430843A169084375
:100FE000E1690843216A084321680A6810430860E0
:100FF0002046FFF7D7FE0121A0688903002588421B
:1010000000D165602079616C8006800E0860A06C5C
:10101000E16C41606068401E03280AD82046FFF753
:10102000D9FE206D0560606DA16D416004E0012076
:1010300070BD25656565A565E56301207071357135
:10104000002070BDF8FFFDBF0F80FFFF70B50446A4
:1010500000F0C2F80546601C02D00448007824184D
:1010600000F0BAF8401BA042FAD370BD3000002057
:10107000F0B5002303249AE02A4601259D402A402A
:101080007ED00E79B607B60F012E01D0022E16D1F2
:1010900086682746B4465E00B646B7406646BE43FD
:1010A000B446CF687646B7406646374387604668A1
:1010B000AE430D79ED06ED0F9D40354345600D794A
:1010C000ED43AD0708D0C5685F002646BE40B54376
:1010D0008E68BE402E43C6600D79AD07AD0F022D60
:1010E0000ED1DD08AD002D18AC462D6A5E07F60E58
:1010F0000F27B740BD430F69B7402F4365462F62A6
:1011000005685F002646BE40B5430E79B607B60FA8
:10111000BE402E4306604D68AD03AD0F46D09E081D
:10112000264DB6007519AC462D6E9E07F60E0F279C
:10113000B740BD4305273F07B84201D100270FE064
:101140001F4FB84201D101270AE01E4FB84201D11A
:10115000022705E01C4FB84201D1032700E0052714
:10116000B7402F43154D664637662D684E68954348
:10117000F60200D51543114F3D607D68954300E0B0
:1011800014E04E68B60200D515437D600B4D8035E6
:101190006E684F689643BF0300D516436E602E6895
:1011A0004F689643FF0300D516432E605B1C0A6808
:1011B0001546DA4000D05FE7F0BD0000001802409D
:1011C0000004005000080050000C0050002A01D01C
:1011D00081617047816270470148806870470000F4
:1011E00030000020024881680278891881607047C9
:1011F0003000002010B50848002401688215114312
:101200000160032000F00AF8002801D0012401E069
:1012100000F028F8204610BD0020024070B50F4EA7
:10122000002431780546002915D07D20C000FFF745
:10123000D1F901460A480068FFF7CCF900F0CEFD6D
:10124000002808D1042D06D200222946401E00F0B5
:101250002BF8756000E00124204670BD30000020AE
:101260003C00002008B509480168012211430160D3
:1012700000681040009005484038C26B01040A43E2
:10128000C263C06B0840009008BD000040100240DF
:10129000002805DBC106C90E01208840014908600D
:1012A0007047000000E100E010B502F071FC10BDD5
:1012B00010B50F4C21680322520291430143216073
:1012C000C11FFF39FA390ED10A4806210068484388
:1012D0000949FFF77FF9401C02E0002805D0401EB5
:1012E00061694905F9D4002010BD032010BD00003C
:1012F000007000403C00002040420F00F8B504465A
:10130000006800264D4D800358D54C4800274038D2
:10131000C06BC00009D449484038C26B01040A437D
:10132000C263C06B084001270090454801688215E0
:1013300011430160FFF750FF009005E0FFF74CFFFD
:101340000099401A022825D83D480068C005F5D507
:10135000E8690321090208400FD0616981420CD07D
:10136000E86903210902EA698843012109040A4363
:10137000EA61EA698A43EA61E861C0070FD0FFF7D2
:101380002BFF009008E0FFF727FF0099411A2D4836
:10139000814201D9032609E0E8698007F3D5E869AD
:1013A00003210902884361690843E861002F05D0E1
:1013B00022484038C26B01048A43C2632078C007C8
:1013C00005D06869616880088000084368612078FA
:1013D000800606D56869032109038843A16808438C
:1013E00068612088400411D56869216980008008FF
:1013F00008436861012120698907884206D10F48A6
:101400004038C168012212041143C16020880005E0
:1014100012D56869032189038843E168084368613C
:101420000121E0688903884206D104484038C16838
:10143000012212041143C1603046F8BD4010024041
:101440000070004088130000F8B50F46060043D036
:101450004D4D28684007400FB84213D22868C00895
:10146000C00038432860FFF7B7FE044605E0FFF7E9
:10147000B3FE011B4548814261D828684007400FF0
:10148000B842F4D13068424C81070DD5400704D5ED
:10149000A068072109030843A060A0680F21090282
:1014A0008843B1680843A0603078C00732D07068C4
:1014B00001280AD002280BD000280FD0344940312F
:1014C00003280ED0C969890704E02168890301E077
:1014D00021688901002906DB0120F8BD2168490542
:1014E000F8E7096AEFE7A168C908C9000143A160EC
:1014F000FFF772FE009006E0FFF76EFE0099411ABA
:10150000224881421BD8A068382108407168C90070
:101510008842F1D128684007400FB84217D91A48CD
:101520000168C908C90039430160FFF755FE054647
:1015300007E0FFF751FE411B1448814201D9032007
:10154000F8BD114800684007400FB842F1D130782B
:10155000400706D5A068072109038843F1680843BE
:10156000A06000F031F8A1683C2289091140094AC5
:10157000515CC906C90EC8400749086007480068A1
:10158000FFF74CFEF8BD0000002002408813000069
:1015900000100240EC4300083C0000203400002012
:1015A0000648074900688968064A4904490F8900C6
:1015B000515CC906C90EC840704700003C000020BD
:1015C000001002402C44000810B5204CA068204AAE
:1015D0008006400F16D0A0688006410F50100129E8
:1015E0000FD0A1688906490F022912D0A068800691
:1015F000400F042823D0A0688006400F032821D084
:10160000002010BD206801218004400F8140104659
:1016100012E0E1688B07E1689B0F4906490F491CFE
:10162000032B00D01046FEF7D5FFE1684904490EB0
:101630004843E168490F491CFEF7CCFF10BD01206B
:10164000C00310BD7D20000210BD0000001002404C
:101650000024F400F8B504007ED020783827C007B5
:10166000E94D002846D0A868E96838408907890F05
:10167000102802D008280BD001E0032908D001204F
:101680006268000482420AD129680143296015E09A
:10169000286880032ED560680028DDD02AE0052365
:1016A00001211B0489049A422A6802D10A432A6054
:1016B000EAE782432A602868884328606068002837
:1016C0000CD0FFF789FD064604E0FFF785FD801B7F
:1016D000642873D828688003F7D50BE0FFF77CFDFA
:1016E000064604E0FFF778FD801B6428F1D82868DF
:1016F0008003F7D42078800769D5A868E968384066
:101700008A070721920FC902102802D0002813D09F
:1017100001E0022A10D0E068002846D028688843FB
:101720002169084328602868FF21013108432860A7
:10173000FFF752FD06462CE02A68520502D5E26802
:10174000002A89D06A687F231B029A4363691B02BF
:101750001A436A60002800E08DE00ED128688843B3
:10176000216908432860286801218004400F8140D6
:10177000A648FEF72FFFA6490860A6480068FFF7B5
:101780004DFD002877D122E0FFF726FD801B0228BF
:101790009FD828684005F7D568687F2109028843EB
:1017A000616909020843686011E02968FF2001307F
:1017B00081432960FFF710FD064605E098E0FFF73A
:1017C0000BFD801B022884D828684005F7D42078B8
:1017D000914E00072ED5A8688006400F03280AD036
:1017E000A0690028306A16D0012108433062FFF753
:1017F000F3FC07460BE0306A80071BD5A069002880
:101800009FD017E0FFF7E8FCC01B022870D8306AB1
:101810008007F7D50EE0400840003062FFF7DCFC9F
:10182000074604E0FFF7D8FCC01B022860D8306AE6
:101830008007F7D4207840076CD5A8680027800679
:10184000400F042818D0E86BC00008D4E96B0120D1
:1018500000070143E963E96B0140012700916F48EC
:101860000168C90519D40168821511430160FFF7A9
:10187000B3FC00900DE083E0F06980074AD5A068D2
:1018800000287DD046E0FFF7A7FC0099401A022807
:101890002ED862480068C005F5D5A168012910D08E
:1018A00004200529F16911D049084900F161F16965
:1018B0008143F161A068002816D0FFF78DFC0090ED
:1018C0000EE0F06901210843F061F3E70143F161A3
:1018D000F7E7FFF781FC0099411A5148814265D82A
:1018E000F0698007F5D50EE0FFF776FC009007E081
:1018F0005CE0FFF771FC0099411A4948814255D8D4
:10190000F0698007F5D4002F04D0E96B01200007AF
:101910008143E963E069002873D0A9688906490F0B
:1019200002294DD0012636060228286805D0B0438A
:101930002860FFF751FC04463AE0B0432860FFF707
:101940004BFC074604E0FFF747FCC01B02282DD8DC
:1019500028688001F7D4616A206AA26A0843E16AB4
:10196000120211430843216B0843E9682D4A1140D4
:101970000843E860286830432860E868012100E0F7
:101980003DE009070843E860FFF726FC044604E051
:10199000FFF722FC001B022808D828688001F7D531
:1019A0002FE0FFF719FC001B022801D90320F8BD26
:1019B00028688001F5D4E8681B490840E86020E009
:1019C0000128F4D0E868226A8107890F914216D174
:1019D0007021626A0140914211D17F21A26A0902FD
:1019E0000140120291420AD11F214904E26A0140DA
:1019F000914204D1400F216B4007884201D0012061
:101A0000F8BD0020F8BD0000001002400024F400E2
:101A10003C000020340000204010024000700040D4
:101A2000881300008C80C11FFCFFFEEFF8B5040096
:101A30000CD0606A002500280AD025616561264621
:101A40004036A562707F002808D00BE00120F8BD69
:101A50006168C81FFD38F2D0E561F0E735772046B0
:101A600000F05CF8022272772068016840239943F5
:101A700001600723E1681B02994201D9002001E0BF
:101A8000012000030F273F02B94202D0994200D043
:101A9000A562FF236168053319402127A368BF02AF
:101AA0003B40194323691340227D1943D207D20FCB
:101AB00011430123A2695B021A401143E2693823F2
:101AC0001A401143226A80231A401143A26A9B01E3
:101AD0001A40114322681160A1690422090C1140C7
:101AE000626A10231A401143626B08231A401143A3
:101AF0000F23E2681B021A40114301221203104017
:101B00000143206841602068C16952109143C1615E
:101B10002566012070770020F8BD0000F0B587B081
:101B2000064614216846FEF753FD2A49306888426C
:101B30004ED12948026881140A43026000680840B7
:101B4000059025484038416B012211434163406BA9
:101B5000002510400590E020009002200190052013
:101B600002950395694604950007FFF781FA1C4C1E
:101B70001A482060A5601020E560606065618020E3
:101B8000A5612061202007022762E0612046FFF75F
:101B90000BFA002801D0FFF731F9B4650F48A662AF
:101BA000104C14302060112060601020E560A060AF
:101BB00065618020A561206120202762E0612046C8
:101BC000FFF7F2F9002801D0FFF718F97465A66253
:101BD00007B0F0BD00300140401002401C00024040
:101BE000C402002020030020FFB583B0044601207A
:101BF0001E460C9F0090FFF7EFFA254640350190F6
:101C0000687F6168012807D0CA1FFD3A2DD1A168FD
:101C100000292AD1042828D1049800287BD00598CF
:101C20000028FBD0002EF9D0287F01281DD00120EC
:101C30002877687F042801D0052068770020206677
:101C400005992164EE80AE800499A163E687A6879A
:101C5000E064206507200121E26800020903824256
:101C60002268536804D98B4303E0022007B0F0BD1B
:101C70000B43536021680A68520603D40A68402364
:101C80001A430A60E1688142606845D9002801D0A2
:101C9000012E39D1A06B01882068C160A06B801C27
:101CA000A063E08F401EE0872EE0206881688907EE
:101CB00010D5E18F00290DD0009901290AD1A16B1F
:101CC0000988C160A06B801CA063E08F401EE08784
:101CD0000020009020688168C9070DD0E98800299C
:101CE0000AD0C068216C0880206C801C2064E888C1
:101CF000401EE88001200090FFF76EFA0199401A1B
:101D0000B84201D3781C5AD1E08F0028CDD1E888A1
:101D10000028CAD147E05FE0002801D0012E3CD165
:101D2000A06B216800780873A06B401CA063E08F53
:101D3000401EE08731E020688168890710D5E18F77
:101D400000290DD0009901290AD1A16B09780173EE
:101D5000A06B401CA063E08F401EE0870020009035
:101D600020688168C9070DD0E98800290AD0007B66
:101D7000216C0870206C401C2064E888401EE880BC
:101D800001200090FFF728FA0199401AB84202D3C7
:101D9000781C02D013E0002F11D0E08F0028CAD1A8
:101DA000E8880028C7D139462046019A00F0A2FEF3
:101DB00000280AD020202066002028770CE001208F
:101DC000687700202877032050E7012068770020FB
:101DD0002877206E0028F7D0012047E7094910B581
:101DE000401E884201D9012010BD074C60610321CB
:101DF000081F01F0CDFE0020A06107202061002017
:101E000010BD0000FFFFFF0000E000E030B503461A
:101E100020331A7F012A49D001221A770325CA6884
:101E20002D02AA438D6800682A430125AD02AA430A
:101E30004D6800242A430125ED02AA430D682A4378
:101E400001252D03AA430D692A4301256D03AA43E9
:101E50004D692A430125AD03AA430D6B2A430F2583
:101E60002D04AA430D8B2D042A4301252D07AA43D7
:101E7000CD692A430E4DA84214D10F252D05AA4342
:101E80000D8D2D052A4301252D06AA430D6A2A43EF
:101E900001256D06AA434D6AC96A2A4301256D07CB
:101EA000AA430A4342641C77002030BD022030BDA3
:101EB000002C0140F0B5034620331A7F012A24D0BC
:101EC00001221A7702225A7704686268A568104FC7
:101ED000BC4205D116460F22120596434A6832438A
:101EE0007026B2430E68164366600068B84202D09E
:101EF000084A904204D18022896895432943816031
:101F00000120587700201877F0BD0220F0BD0000B6
:101F1000002C01400004004070B5040005D02546A7
:101F20002035687F002802D006E0012070BD002027
:101F30002877204600F016F802206877211D2068D7
:101F400000F0FAFE012240342272AA77EA7722706A
:101F50006270A270E27022716271A271E2716A779E
:101F6000002070BD08B500680549884207D10548C2
:101F70000268C1140A43026000680840009008BD6E
:101F8000002C014040100240F8B5054604462035BB
:101F9000287F0026012817D001272F770220687795
:101FA000226890682F4B1840FF231B0298439060D3
:101FB0000868502838D00EDC20284FD006DC0028D6
:101FC0004CD010281ED149E00220F8BD302845D061
:101FD000402817D13AE060282ED0702818D001226E
:101FE0001203801A0FD090420CD1CB684A688968DE
:101FF000206800F0F0FE20688168012292031143FE
:10200000816000E001266F77002028773046F8BD18
:10201000CB684A688968206800F0DDFE216888681E
:10202000772210438860EEE7CA684968206801F0AB
:102030003BF85021206806E0CA684968206801F032
:1020400057F86021206800F0D1FEDCE7CA684968D3
:10205000206801F029F840212068F4E72268014651
:102060001046F0E788FFCEFF10B586B00446142175
:102070006846FEF7ADFA0D492068884214D10C4835
:10208000416B012211434163406B022110400590D6
:10209000100200900020029003900191049105200D
:1020A00069460007FEF7E4FF06B010BD002C0140B2
:1020B0000010024070B5054620352B7F0024012B0F
:1020C0000BD001232B770C2A1ED008DC002A0FD05E
:1020D000042A11D0082A06D112E0022070BD102A6D
:1020E00016D0142A18D0012400202877204670BD6D
:1020F000006800F085FEF7E7006800F0C1FEF3E736
:10210000006800F0FDFEEFE7006800F039FFEBE744
:10211000006800F069FFE7E7006800F093FFE3E77D
:1021200070B5040005D025462035687F002802D010
:1021300006E0012070BD00202877204600F016F848
:1021400002206877211D206800F0F6FD012240344E
:102150002272AA77EA7722706270A270E27022710E
:102160006271A271E2716A77002070BD7047000051
:1021700030B505460223203000290ED0042911D0A5
:102180002C464034082912D00C2915D0102918D01B
:10219000E278012A1AD0012030BD827F012AFAD1CB
:1021A000837714E0C27F012AF5D1C3770FE022784C
:1021B000012AF0D123700AE06278012AEBD1637022
:1021C00005E0A278012AE6D1A37000E0E3700122C5
:1021D000286800F0F3FD114A2868904205D01049A4
:1021E000884202D00F49884204D1416C0123DB03AD
:1021F0001943416428680121904202D00A4A904262
:1022000007D18268094B1A40062A05D0DB1F9A4283
:1022100002D002680A430260002030BD002C014059
:102220000044014000480140000400400700010054
:1022300010B5014680310A79012A15D001220A71B0
:1022400024228A60026813681468640864001460B9
:102250000122520793430022426600680360202057
:1022600088600A71104610BD022010BD704770478B
:1022700070B5044605468034207901281AD0012023
:1022800020712420A0602868066802685208520065
:1022900002602868826807235B069A430A438260CB
:1022A000284600F041FF286806602020A06000203A
:1022B000207170BD022070BD70B5044605468034A3
:1022C0002079012819D0012020712420A0602868DD
:1022D0000668026852085200026028688268D200CC
:1022E000D2080A438260284600F01EFF2868066074
:1022F0002020A0600020207170BD022070BD7047BA
:1023000070477047F8B503680446D96918689A6839
:10231000B94D0E462E4025468035002E75D0B74E5D
:10232000B74F1640074037436ED0CF0706D0C705DA
:1023300004D501271F622B693B432B618B0708D50E
:10234000D30706D0276802233B622B6904273B434F
:102350002B614B0708D5D30706D0276804233B62BF
:102360002B6902273B432B610B0709D52023034030
:10237000334305D02668082333622E691E432E613D
:102380000B0509D5430107D501232668DB0233621B
:102390002B69202633432B612B69002B42D0890601
:1023A0000AD520210840C9050A40104304D0616FB6
:1023B000002901D020468847286921688968490694
:1023C00002D42821084232D0204600F097FF21682D
:1023D0008868400627D5EFF31080012282F3108829
:1023E0008B68402293438B6080F310882868002814
:1023F00019D0844981632868FEF73CFD002811D07C
:102400002868816B0DE000E017E08E0615D50127E6
:1024100020263F07064017403E430ED0616FBFE0C5
:1024200020468847F8BD2046FFF76BFFF8BD2046E1
:10243000FFF767FF00202861F8BDE66E012E7DD111
:10244000CE067BD5C60679D5102018622268906822
:10245000264640064036002857DA29680B68586837
:102460000004000C45D0B78B874242D9F08308683E
:102470000068800636D4EFF31080012181F31088C4
:102480001168FF2301339943116080F31088EFF343
:102490001080012181F3108821688A685208520057
:1024A0008A6080F31088EFF31080012181F3108897
:1024B00021688A6840239A438A6080F3108820202C
:1024C000E8600020E066EFF31080012181F31088BE
:1024D00021680B68102293430B6080F310882868F2
:1024E000FEF78EFC02202067B08BF18B401A81B280
:1024F00007E0B18B81429FD1186880069CD50220ED
:1025000020672046FFF7B2FEF8BDB08BF18B401A72
:1025100081B2F08B0028F7D00029F5D0EFF31080BE
:10252000012383F310881368FF262136B343136019
:1025300080F31088EFF31080012200E01BE082F3AB
:102540001088226893682D4EF6433340936080F3E1
:1025500010882020E8600020E0666067EFF31080BC
:10256000012282F31088226813681025AB431360A0
:1025700080F31088C3E7CE0208D5560206D50120A5
:10258000000518622046FFF7BBFEF8BD0E060BD50E
:1025900001278026FF0506403A40164304D0A16F6C
:1025A000002900D03CE7F8BD4A0614D5420612D5F2
:1025B0002046EFF31081012282F310881A6840242C
:1025C000A2431A6081F310882021A960002181674D
:1025D00000F062F9F8BD0A0205D5420003D5204695
:1025E000FFF78DFEF8BDC901FCD50028FADA2046B8
:1025F000FFF73DFEF8BD00000F08000001000010CD
:1026000020010004F132000870B5040005D0254611
:102610008035A868002802D006E0012070BD0020A7
:102620002871204600F026F82420A8602068016860
:10263000490849000160A06A002802D0204600F045
:1026400095FD204601F0FCF80128E7D0206841689C
:102650000922D20291434160206881682A22914375
:10266000816020680168012211430160204600F06A
:10267000E3FD70BD70B58CB0064614216846FDF7C9
:10268000A7FF182105A8FDF7A3FF26493068884257
:1026900045D1012000250590069505A8FEF72EFEE0
:1026A000002801D0FEF7AAFB1F4802680121890318
:1026B0000A430260006808400B901B484038426B98
:1026C00002210A434263406B6A4608400B90C020D7
:1026D00023C20395694615480495FEF7C9FC154CBD
:1026E00013482060A5603220E5606060656180204D
:1026F000A561206120202562E0612046FEF754FCA0
:10270000002801D0FEF77AFB802084510022114678
:102710001B20A662FEF7C8FD1B20FEF7B9FD0CB01A
:1027200070BD00000038014040100240000400501D
:10273000080002407C03002070B58C231B58202B1E
:1027400001D0022070BD00290BD0002A09D001243D
:1027500083682403A34206D10369002B03D1CB076E
:1027600001D0012070BD0023C366046863681B02AA
:102770000BD5EFF31083012585F31088256801261A
:10278000B6063543256083F3108801F00DF970BD5E
:1027900010B50068074988420AD101220649074856
:1027A000FFF7CAFF642301220349044800F008F838
:1027B00010BD000000380140000000203002002061
:1027C000FFB5064604468036B06883B00D46202823
:1027D00002D0022007B0F0BD002D3BD005980028A4
:1027E00038D00120A1680003814204D1206900286B
:1027F00001D1E8072ED1002030612120B060FEF722
:10280000EBFC0190274640370598B8820598F8827E
:102810000120A1680003814202D12069002802D072
:102820000295002522E0002002901FE00022802176
:10283000204601F04FF9002825D1029800280BD03E
:102840002168007888620298401C0290B1682120BB
:10285000884308D00120BDE728882168C005C00D45
:102860008862AD1CF2E7F88A401EF882F88A019B64
:10287000002806980090D9D100224021204601F07E
:1028800029F9002803D02020B0600320A2E72020EF
:10289000B06000209EE7000010B50068044988423F
:1028A00005D16423102203490348FFF789FF10BDB7
:1028B000003801402000002030020020FEE7000028
:1028C000F0B587B014216846FDF782FE1E48426BC2
:1028D00002210A434263426B0A400592426B042183
:1028E0000A434263426B0A400592416B012529432A
:1028F0004163406B154E2840EC03059000222146B1
:102900003046FEF763FC05273F0700221049384692
:10291000FEF75CFC012210213846FEF757FC0094BC
:10292000002401950294694630460394FEF7A0FB0B
:102930000748029410300090694601950394384688
:10294000FEF796FB07B0F0BD0010024000080050F3
:102950000F18000010B511480F490160FF21053123
:10296000416000210722816012020161C2600122E0
:10297000416152028261016220224162C261816230
:102980000722C262016308214163FFF74FF8002864
:1029900001D072B6FEE710BD00300140800100207A
:1029A00010B59CB0002419941A9417941894149498
:1029B00015941C210DA81694FDF70AFE34216846D3
:1029C000FDF706FE2F482E4901600F21846041600B
:1029D0000461FF214461F4318461C160FFF79CFA16
:1029E000002801D072B6FEE701200003179017A956
:1029F0002448FFF7C9FA002801D072B6FEE7214843
:102A0000FFF78EFB002801D072B6FEE714941594F0
:102A100014A91C481694FFF74DFA002801D072B68D
:102A2000FEE7602012940E940D900F941094119470
:102A300000220DA913941348FFF73CFB002801D096
:102A400072B6FEE7012000944003059001940294C1
:102A500004940003039406940794099008940A943C
:102A60000B9469460C940748FFF7D0F9002801D071
:102A700072B6FEE70348FFF7F7FA1CB010BD00007E
:102A8000002C0140E401002010B5184816490160EF
:102A9000E1214902416000218160C16001618161E1
:102AA000C16101620C22416242618162FFF7ACFDAB
:102AB000002801D072B6FEE700210C48FFF7FCFBAE
:102AC000002801D072B6FEE700210848FFF7D0FBCE
:102AD000002801D072B6FEE70448FFF7A9FB0028E2
:102AE00001D072B6FEE710BD003801403002002070
:102AF000FEE77047F8B50F460B46154600920321D6
:102B000004460022C90200F01BF82026002812D13A
:102B10003B46002280212046009500F07DF80028E9
:102B200009D103213B46002249022046009500F0CE
:102B300007F8002803D0206E304320660320F8BD3C
:102B4000FFB585B00E460446002069460E9D174627
:102B50000871FEF741FB411B0898451AFEF73CFB44
:102B60000390206823210C3002902A4800684843D3
:102B7000000D684319E003204002864206D1002F71
:102B800004D1029801786846017100790898401CC8
:102B90000CD0FEF721FB0399401AA8420ED2002D5B
:102BA0000CD00098002833D0401E00902068806828
:102BB0003040B842DFD1002009B0F0BD2068416844
:102BC000E022914341606068C11FFD390CD10121B1
:102BD000A068C903884202D04911884204D1206804
:102BE00001684022914301600120A16A40038142B3
:102BF00007D121680A6882430A6021680A68024393
:102C00000A60012040346077002020770320D3E75A
:102C10000025CBE73C000020FFB581B01E460446EE
:102C20000A9DFEF7D9FA401B351AFEF7D5FA07467A
:102C3000264800684001000D68430CE0701C0BD072
:102C4000FEF7CAFAC01BA84212D2002D10D000987D
:102C5000002837D0401E0090206881680298884381
:102C600032D0002103988142E8D1002005B0F0BDA8
:102C700020684168E022914341606068C11FFD39CE
:102C80000CD10121A068C903884202D049118842B1
:102C900004D1206801684022914301600120A16AAB
:102CA0004003814207D121680A6882430A60216893
:102CB0000A6802430A6001204034607700202077D0
:102CC0000320D3E70025C7E70121CBE73C00002024
:102CD000704710B5FEF786FA10BD10B592B03421DA
:102CE0006846FDF775FC002401200D940E940F94A6
:102CF00040021094FEF7DCFA02200090C00103901D
:102D000040200590049407946846FEF7A3FC002831
:102D100001D072B6FEE707200D900E940F940021AB
:102D200010940DA8FEF790FB002801D072B6FEE7C4
:102D300012B010BD7047000070B502681A4B1B4EF0
:102D4000984201D0B04203D17024A2434C68224380
:102D5000174C184D984208D0B04206D0164EB042DB
:102D600003D0A04201D0A84204D103263602B243C8
:102D7000CE6832438026B2434E6932438E68C662C3
:102D80000E688662984203D0A04201D0A84201D1C9
:102D9000096901630168042319430160012141614C
:102DA000BFF34F8F026070BD002C01400004004053
:102DB00000440140004801400020004010B5CB060F
:102DC000DB0E0121046A99408C430462016A9A4037
:102DD0001143016210BD30B58468FF252D021B022E
:102DE0001343AC430B432343836030BD8268034BE2
:102DF0001A400A4307210A43826070478FFFCFFFC2
:102E0000F0B5056A026A520852000262436882699C
:102E1000174C224092080C689200144302229543FA
:102E20008A682A43134DA84205D0134EB04202D0FF
:102E3000124EB04207D1066A0427BE430662082636
:102E4000B243CE683243A84205D00B4DA84202D00F
:102E50000A4DA84206D103252D02AB434D691D43FF
:102E60008B692B4343608461496841630262F0BD12
:102E70008FFFFEFF002C014000440140004801404C
:102E800070B5046A026A10239A4302624268836939
:102E9000174D2B4003252D02AB430D682D021D431A
:102EA00020239C438B681B012343124CA04209D171
:102EB000046A4026B44304628024A343CC682401FE
:102EC000234305E00C4CA04202D00C4CA04208D198
:102ED0000324A402A2434C69A40014438A6992000B
:102EE00022434260856149688163036270BD0000CE
:102EF000FF8FFFFE002C01400044014000480140CC
:102F000070B5056A026AFF2301339A430262426880
:102F1000C369174C23409B080C689B001C4301238A
:102F20005B029D438B681B022B43124DA84209D1C3
:102F3000056A0615B5430562C514AB43CD682D027D
:102F40002B4305E00C4DA84202D00C4DA84208D1FD
:102F500003252D03AA434D692D0115438A691201EA
:102F60002A434260C4614968C163036270BD0000C6
:102F70008FFFFEFF002C014000440140004801404B
:102F800030B5046A026A01231B039A430262436854
:102F9000C269114D2A4003252D02AA430D682D0256
:102FA00015430122520394438A68120322430B4CB7
:102FB000A04205D00A4CA04202D00A4CA04205D142
:102FC0000124A403A3434C69A40123434360C561C6
:102FD00049680164026230BDFF8FFFFE002C014092
:102FE000004401400048014070B5036A026A0126AE
:102FF0003604B24302624268456D0E4C25400C68AF
:103000002C437500AB430D892D041D430A4B984298
:1030100005D00A4B984202D0094B984203D14B6924
:10302000B2431B021A4342604465496881650562E8
:1030300070BD00008FFFFEFF002C014000440140E6
:103040000048014070B5046A026A01231B059A43D7
:1030500002624268436D104D2B400D682D021D43E6
:1030600001235B059C430B891E050C4B26439842AC
:1030700005D00B4B984202D00A4B984206D101244E
:103080001346A4044A69A34392021A434260456569
:103090004968C165066270BDFF8FFFFE002C0140CC
:1030A000004401400048014030B5036A046A6408E6
:1030B000640004620B4CA04205D00B4CA04202D02D
:1030C0000A4CA04203D1046A0425AC43046284691B
:1030D000F025AC43120122430A24A3430B4382612F
:1030E000036230BD002C0140004401400048014013
:1030F00030B5046A036A1025AB430362094B98425A
:1031000003D1036A4025AB43036283690F252D0376
:103110001203AB431A43A0239C430901214382615C
:10312000016230BD002C0140F8B50446416E4034C8
:10313000002915D000688168806809014D0F0A4E8A
:10314000400F3746315C083F385CC000FDF742FA5B
:103150006085785D715DC000FDF73CFA2085F8BDA3
:1031600001206085FAE70000E243000810B5018DF8
:10317000090707D501684A680123DB039A43836B7B
:103180001A434A60018DC90707D001684A680123C4
:103190005B049A43C36A1A434A60018D890707D5C5
:1031A00001684A6801231B049A43036B1A434A606F
:1031B000018D490707D501684A6801239B049A439A
:1031C000436B1A434A60018DC90607D502689168AE
:1031D00001231B039943C36B19439160018D890639
:1031E00007D501688A6801235B039A43036C1A437D
:1031F0008A60018D490612D503685A6801210905C4
:10320000446C8A4322435A60426C8A4207D1026866
:10321000516803235B059943836C19435160018D09
:10322000090607D501684A680123DB04C06C9A438C
:1032300002434A6010BD0000FEB5054600268035F9
:1032400004462E61FDF7C8FF019020680068202722
:103250000007002817DA254800900022390420468C
:10326000019B00F037FC00280DD0EFF31080012106
:1032700081F3108821680A6880239A430A6080F3EA
:103280001088AF6028E020680068400727D51748FD
:1032900000900121002289052046019B00F01AFCC4
:1032A00000281CD0EFF31080012181F310882168E1
:1032B0000A68FF2321339A430A6080F31088EFF3F2
:1032C0001080012181F3108821688A685208520019
:1032D0008A6080F31088EF602E710320FEBDAF601E
:1032E000EF60E66626672E710020FEBDFFFFFF013E
:1032F00010B5806AFFF705F810BD000010B5EFF3B8
:103300001081012282F3108802681368FF2421349F
:10331000A343136081F31088EFF31081012282F33D
:103320001088026893680D4C2340936081F31088E5
:10333000C16E01290BD1EFF31081012282F31088B5
:10334000026813681024A343136081F310882022BD
:103350008C210A500021C166416710BDFEFFFFEFBE
:1033600070B501464031034680330C8CDD6802683D
:10337000222D04D0906908210843906170BD526AE3
:10338000856D22402A80826D921C8265CA8B521EF6
:10339000CA83CA8B002AF1D1EFF31082012484F38F
:1033A000108804682568FF262136B543256082F31E
:1033B0001088EFF31082012484F310880468A56854
:1033C0006D086D00A56082F310882022DA6000236A
:1033D000436703670468626812020BD5EFF310823B
:1033E000012585F3108825680126B606B5432560BA
:1033F00082F31088C26E012A02D0FFF7C9F970BDAE
:10340000C366EFF31082012383F3108804682568F4
:1034100010239D43256082F310880268D469E44339
:10342000E40600D41362898BFEF720FF70BD000014
:10343000F0B506460446403689B0308C01902068CD
:10344000C769016806918168254680350491E9685D
:10345000222905D0816908221143816109B0F0BD9C
:10346000308D05903DE02068406A019AA16D1040C2
:103470000880A06D801CA065F08B401EF083206842
:10348000C769790729D0F90707D00699C90504D576
:1034900001210162286908432861B80709D5049809
:1034A000C00706D021680220086228690421084369
:1034B0002861780709D50498C00706D02168042040
:1034C000086228690221084328612869002804D07D
:1034D0002046FEF716FF00202861F08B002826D03A
:1034E0000598002801D0B806BDD4F08B0028B5D0CF
:1034F000318D8142B2D9EFF31080012181F3108820
:1035000021688A6801231B079A438A6080F3108828
:103510002D486067EFF31080012181F31088216846
:103520000A6820231A430A6080F3108896E7EFF3B5
:103530001080012181F3108821680A68FF2301337C
:103540009A430A6080F31088EFF31080012181F321
:10355000108821688A681D4B1A408A6080F31088A1
:103560002020E8600021616721672268506800021E
:103570000BD5EFF31080012383F310881368012526
:10358000AD06AB43136080F31088E06E012803D0D2
:103590002046FFF7FDF8A8E7E166EFF31080012170
:1035A00081F310882268136810218B43136080F325
:1035B00010882068C269D243D20600D40162B18B60
:1035C0002046FEF753FE90E761330008FEFFFFEF51
:1035D00070B501464031034680330C8CDD680268CB
:1035E000222D04D0906908210843906170BD526A71
:1035F0002240846D2270826D521C8265CA8B521EDD
:10360000CA83CA8B002AF1D1EFF31082012484F31C
:10361000108804682568FF262136B543256082F3AB
:103620001088EFF31082012484F310880468A568E1
:103630006D086D00A56082F310882022DA600023F7
:10364000436703670468626812020BD5EFF31082C8
:10365000012585F3108825680126B606B543256047
:1036600082F31088C26E012A02D0FFF791F870BD74
:10367000C366EFF31082012383F310880468256882
:1036800010239D43256082F310880268D469E443C7
:10369000E40600D41362898BFEF7E8FD70BD0000DC
:1036A000F0B506460446403689B0308C019020685B
:1036B000C769016806918168254680350491E968EB
:1036C000222905D0816908221143816109B0F0BD2A
:1036D000308D05903DE02068406A01990840A16D59
:1036E0000870A06D401CA065F08B401EF083206820
:1036F000C769790729D0F90707D00699C90504D504
:1037000001210162286908432861B80709D5049896
:10371000C00706D0216802200862286904210843F6
:103720002861780709D50498C00706D021680420CD
:10373000086228690221084328612869002804D00A
:103740002046FEF7DEFD00202861F08B002826D001
:103750000598002801D0B806BDD4F08B0028B5D05C
:10376000318D8142B2D9EFF31080012181F31088AD
:1037700021688A6801231B079A438A6080F31088B6
:103780002D486067EFF31080012181F310882168D4
:103790000A6820231A430A6080F3108896E7EFF343
:1037A0001080012181F3108821680A68FF2301330A
:1037B0009A430A6080F31088EFF31080012181F3AF
:1037C000108821688A681D4B1A408A6080F310882F
:1037D0002020E860002161672167226850680002AC
:1037E0000BD5EFF31080012383F3108813680125B4
:1037F000AD06AB43136080F31088E06E012803D060
:103800002046FEF7C5FFA8E7E166EFF3108001212F
:1038100081F310882268136810218B43136080F3B2
:1038200010882068C269D243D20600D40162B18BED
:103830002046FEF71BFD90E7D1350008FEFFFFEFA5
:10384000F8B5044680682169E2690843616900258A
:1038500011432268084311684B4B19400143116022
:1038600020684168032212039143E26811434160DA
:10387000A169206A084321688A68444B1A400243C0
:103880008A602068C16A626A090909011143C1623C
:103890003F492068884211D13E4840698007800F27
:1038A0000FD0012806D0022802D003280BD103E054
:1038B000022109E0042107E0082105E03649884299
:1038C00001D1002100E010210120E369C003334A47
:1038D000334E344F834227D1002906D0022907D026
:1038E000042907D008293FD108E0FDF759FE03E07D
:1038F000104603E0FDF768FE00283AD0616A4900EF
:10390000715AFCF767FE616840004A088018FCF7AE
:1039100061FE01461039B94226D82249491C0140AE
:103920000007400F084322E0002906D0022907D0F3
:10393000042907D0082917D108E0FDF731FE03E07C
:10394000104603E0FDF740FE002812D0616A4900EE
:10395000715AFCF73FFE61684A088018FCF73AFE8E
:1039600001461039B94201D9012502E080B221682F
:10397000C8602046012140304185018500206067F4
:10398000A0672846F8BD0000F369FFCFFFF4FF11E0
:103990000038014040100240004400400024F40080
:1039A000C2430008EFFF0000F0B5816501464031D9
:1039B0008A83CA8300254567012483682403FF2680
:1039C000A34204D10369002B13D13D4B0AE07F27AA
:1039D000002B09D001263607B3420CD10369002B16
:1039E00005D03F230B8407E00369002B01D00F842F
:1039F00002E00E8400E00D84034680331D61222521
:103A0000DD60EFF31083012585F310880568AE684B
:103A100001273E43AE6083F31088436E7D07AB42BF
:103A200029D1098D914226D88168A14202D101692C
:103A300000291DD023494167016900290CD0EFF30B
:103A40001081012282F3108802681368FF24013478
:103A50002343136081F31088EFF31081012282F376
:103A600010880068826801231B071A43826023E0E4
:103A700015494167F0E78168A14202D10169002937
:103A80000ED012494167016900290BD0EFF3108174
:103A9000012282F3108800680268FF23213309E0C5
:103AA0000B494167EFF31081012282F3108800680F
:103AB000026820231A43026081F310880020F0BDC1
:103AC000FF010000A136000831340008D13500089C
:103AD00061330008FFB581B005460E4604468035C7
:103AE0000A9F32E0781C30D0FDF776FB0499401A2B
:103AF000B84218D8002F16D020680168490724D58D
:103B0000802E22D0402E20D0C169C94309070CD491
:103B1000082606622046FFF7F1FB2E61002028717F
:103B2000012005B0F0BD0320FBE7C069C0430005DC
:103B30000BD401202168C00208622046FFF7DEFB9B
:103B40002020286100202871EDE72068C1693046F7
:103B5000884305D0002103988142C3D00020E0E7CC
:103B60000121F8E710B50248FEF7CCFB10BD0000BC
:103B70003002002030B47446641E2578641CAB42C9
:103B800000D21D46635D5B00E31830BC184700009F
:103B90008307FF22DB0E9A408907090E994000280F
:103BA00008DB830809489B001B18186890430843EA
:103BB000186070470007000F0838830804489B000E
:103BC0001B18D86990430843D861704700E400E0AF
:103BD00000ED00E030380A2801D2012070470020B3
:103BE00070470000F0B0FDF705FBFFF776F8FEF731
:103BF00067FEFD48816B012211438163806B104099
:103C00000022009011460920FDF74EFB0920FDF728
:103C10003FFB002211460A20FDF746FB0A20FDF774
:103C200037FBFEF7BDFEFEF72FFFFEF793FE642382
:103C30000F22EE49EE48FEF7C3FDEC490122203980
:103C4000EB48FEF779FDEA49E848B0392038416190
:103C500005240122240711032046FDF7B7FA64204A
:103C6000FDF7F4F9012210212046FDF7AFFAE1A19A
:103C70002BA8FCF7C1FA2BA8FCF720FC7D2482B20C
:103C8000E40023462BA9DA48FEF79AFDFCF7A6FECE
:103C90000246DFA12BA8FCF7AFFA2BA8FCF70EFC1D
:103CA00082B223462BA9D248FEF78AFDCF491839A4
:103CB000C81FFCF739FE05460246D9A12BA8FCF720
:103CC0009BFA2BA8FCF7FAFB82B223462BA9C84823
:103CD000FEF776FD002D09D0D6A12BA8FCF78CFAB3
:103CE0002BA8FCF7EBFB82B223463EE0BF4DD7A1E9
:103CF000203D6A782BA8FCF77FFA2BA8FCF7DEFBA7
:103D00007D2682B2F60033462BA9B948FEF758FD4E
:103D1000D4A12BA8FCF770FA2BA8FCF7CFFB82B23A
:103D200033462BA9B248FEF74BFD00240FE0025D9D
:103D3000D0A12BA8FCF760FA2BA8FCF7BFFB82B23E
:103D400033462BA9AA48FEF73BFD641CE4B2A868E1
:103D50004178891CA142EAD8B5A12BA8FCF74CFAFE
:103D60002BA8FCF7ABFB82B233462BA9A048FEF789
:103D700027FD9E490D201839FCF722FF00287DD031
:103D8000BEA12BA8FCF738FA2BA8FCF797FB82B250
:103D90007D23DB002BA99648FEF712FD1422BE49B5
:103DA0006BA8FCF7F1F9BC4826AC143007C807C46F
:103DB00000266BAD0C3C7000215AB0002858002240
:103DC000FDF704FA761C052EF5DBFF27F53738469C
:103DD000FDF73CF900267000215AB0002858012256
:103DE000FDF7F4F9761C052EF5DB3846FDF72EF9C4
:103DF00000267700B5006BA8E15B40590022FDF773
:103E0000E5F9FF20F530FDF721F96BA8E15B40599A
:103E10000122FDF7DBF9761C052EEADB7448002150
:103E20004C38FEF7A5F97248142200214C3800F0F6
:103E300097FA7D24E4002046FDF708F96C4800223B
:103E400011464C3800F08CFA2046FDF7FFF8642349
:103E50000F2266496648FEF7B3FC2046FDF7F6F8E8
:103E600062480838FCF750FD020021D08BA12BA836
:103E7000FCF7C2F92BA8FCF721FB00E016E082B2A8
:103E800023462BA95A48FEF79BFCFF20F530FDF78F
:103E9000DDF856491C3908460C30FCF71BFD0200C2
:103EA0001AD082A12BA8FCF7A7F93FE086A168E70A
:103EB0004E480838057843788278C178029103A982
:103EC0002CC102794179009101928379C27983A151
:103ED0002BA8FCF791F9CDE78AA12BA8FCF78CF968
:103EE0002BA8FCF7EBFA82B223462BA94048FEF739
:103EF00067FC3E4E0025203E10E030695DA1425D2A
:103F00002BA8FCF779F92BA8FCF7D8FA82B2234644
:103F10002BA93748FEF754FC6D1CEDB2B088801C0D
:103F20008542EAD342A12BA8FCF766F92BA8FCF73F
:103F3000C5FA82B223462BA92D48FEF741FC2B4936
:103F40001E3908460A30FCF7B3FD020004D071A107
:103F500006A8FCF751F94AE173A106A8FCF74CF951
:103F600006A8FCF7ABFA82B2234606A92048FEF762
:103F700027FC1E4D0026203D22E0E8683DA1825D21
:103F800006A8FCF739F906A8FCF798FA82B223468E
:103F900006A91748FEF714FC012130070907C8429B
:103FA0000CD123A106A8FCF727F906A8FCF786FA8E
:103FB00082B2234606A90E48FEF702FC761CB6B272
:103FC00068888642D9D35DA106A8FCF715F906A832
:103FD000FCF774FA82B2234606A90548FEF7F0FB07
:103FE00000262E27C5E0000000100240200000201F
:103FF000300200200D0A3D3D3D3D3D204352393504
:1040000048462054455354203D3D3D3D3D0D0A005A
:10401000504F5220726574203D20256C750D0A00AA
:104020004857496E697420726574203D20256C756F
:104030000D0A000043523935484620494E49542064
:104040004641494C45440D0A0000000049432056B2
:10405000657273696F6E203D203078253032580DBF
:104060000A00000049444E20526573706F6E7365FC
:10407000203A2000253032582000000049534F31AB
:10408000353639332053656C656374204661696C3D
:1040900065640D0A00000000A44300084E6F205420
:1040A00061672028256C75290D0A00004765745347
:1040B000797374656D496E666F204572726F723DDB
:1040C000256C750D0A00000049534F3135363933E0
:1040D0002053656C65637465640D0A005549443A64
:1040E000202530325825303258253032582530328C
:1040F0005825303258253032582530325825303244
:10410000580D0A0053797374656D496E666F3A20D5
:104110000000000052656164204572726F72203D9C
:1041200020256C750D0A00000D0A3D3D20484558BC
:104130002044554D50203D3D0D0A00000D0A3D3DE7
:10414000204153434949203D3D0D0A00E868805D08
:10415000014620395E2902D86946087601E06846A2
:1041600007762346012206A95548FEF729FB761C4F
:10417000B6B268888642E9D352A106A8FCF73CF89B
:1041800006A8FCF79BF982B2234606A94C48FEF725
:1041900017FB4DA106A8FCF72FF806A8FCF78EF92F
:1041A00082B2234606A94648FEF70AFB0026E968C4
:1041B000B2005018C7788378407800900297019336
:1041C0008B5C324646A106A8FCF716F806A8FCF759
:1041D00075F982B2234606A93948FEF7F1FA761C32
:1041E000F6B21C2EE3D337A106A8FCF705F806A803
:1041F000FCF764F982B2234606A93148FEF7E0FADB
:1042000040A000682A902AA90820FCF78BFD020034
:1042100038D03DA106A8FBF7EFFF06A8FCF74EF942
:1042200082B22546234606A92548FEF7C9FA29A9E0
:104230000820FCF717FC28A8C1798079019100902B
:1042400028A84379027937A106A8FBF7D5FF06A86D
:10425000FCF734F982B22B4606A91948FEF7B0FAEA
:10426000384906A8FBF7C8FF06A8FCF727F982B271
:104270002B4606A91248FEF7A3FA00242F462E2645
:10428000314D17E031A106A8FBF7B6FFC5E7E86896
:10429000005D014620395E2902D86946087601E0B2
:1042A000684606763B46012206A90548FEF788FACD
:1042B000641CA4B26888844200D36FE5E7E700007D
:1042C000300200200D0A00000D0A3D3D20424C4FF7
:1042D000434B2044554D50203D3D0D0A0000000049
:1042E000426C6F636B2025303264203A20253032D7
:1042F0005820253032582025303258202530325869
:104300000D0A000054455354577269746520426C7D
:104310006F636B203038204572726F723D256C756B
:104320000D0A0000426C6F636B3038203A20253054
:10433000325820253032582025303258202530324E
:10434000580D0A003C4100080000002057726974B3
:104350006520426C6F636B203038204F4B0D0A0094
:1043600070B50D465A2A00D95A220468E06A6421C1
:10437000401C5043FCF72EF9002D09D0042D09D024
:10438000082D09D00C2D09D0102D09D0E06570BD85
:10439000606370BDA06370BDE06370BD206470BDDC
:1043A000A06570BD000000500000005000000050EB
:1043B0000000005000080050010002000400080046
:1043C0000080010002000400060008000A000C0042
:1043D00010002000400080000001010101030701DE
:1043E00000000804020408010101000000000000B0
:1043F00000000000000000000000000000000000BD
:1044000000000000000000000000000001000000AB
:10441000020000000300000004000000060000008D
:104420000700000008000000090000000000000074
:10443000000000000000000000000000010000007B
:10444000020000000300000004000000303132339D
:1044500034353637383941424344454640305800B8
:1044600030313233343536373839616263646566EA
:104470004030780004000008000000000000000246
:104480000001000010000000A84400080000002007
:104490004000000004010008E8440008400000203B
:1044A000F8090000200100080000000000000000E2
:1044B00000000000000000000000000000000000FC
:1044C000000000000000000048656C6C6F2068650B
:1044D0006C6C6F21210D0A00010000000400000037
:0844E000000000000024F400BC
:04000005080000C12E
:00000001FF
