:020000040800F2
:100000009807002065010008091700082516000858
:1000100000000000000000000000000000000000E0
:100020000000000000000000000000002D1B000880
:1000300000000000000000000B1700082F1B000844
:100040007701000800000000770100087701000830
:1000500077010008770100087701000877010008A0
:1000600000000000A50300087701000877010008E0
:100070007701000877010008770100080000000000
:100080007701000800000000000000007701000870
:1000900000000000770100087701000877010008E0
:1000A000770100080D1700081D17000877010008E8
:1000B00077010008000000000000000000000000C0
:1000C00000F002F800F03EF80CA030C80838241800
:1000D0002D18A246671EAB4654465D46AC4201D180
:1000E00000F030F87E460F3E0FCCB6460126334274
:1000F00000D0FB1AA246AB46334318479C1B0000B6
:10010000BC1B0000103A02D378C878C1FAD8520755
:1001100001D330C830C101D504680C6070470000BD
:100120000023002400250026103A01D378C1FBD813
:10013000520700D330C100D50B6070471FB51FBDFB
:1001400010B510BD00F0FAF81146FFF7F7FF01F007
:1001500043FD00F012F903B4FFF7F2FF03BC00F017
:1001600019F900000748804707480047FEE7FEE707
:10017000FEE7FEE7FEE7FEE704480549054A064BB1
:1001800070470000911B0008C10000089801002082
:1001900098070020980300209803002001E004C085
:1001A000091F0429FBD28B0701D50280801CC907D7
:1001B00000D00270704700290BD0C30702D0027034
:1001C000401C491E022904D3830702D50280801CEB
:1001D000891EE3E70022EEE70022DFE700220309A1
:1001E0008B422CD3030A8B4211D300239C464EE052
:1001F00003460B433CD4002243088B4231D303090E
:100200008B421CD3030A8B4201D394463FE0C309BF
:100210008B4201D3CB01C01A524183098B4201D3D7
:100220008B01C01A524143098B4201D34B01C01AC2
:10023000524103098B4201D30B01C01A5241C3083A
:100240008B4201D3CB00C01A524183088B4201D3A9
:100250008B00C01A524143088B4201D34B00C01A95
:100260005241411A00D201465241104670475DE0AA
:10027000CA0F00D04942031000D34042534000222D
:100280009C4603098B422DD3030A8B4212D3FC22D6
:10029000890112BA030A8B420CD3890192118B4255
:1002A00008D3890192118B4204D389013AD092116B
:1002B00000E08909C3098B4201D3CB01C01A524126
:1002C00083098B4201D38B01C01A524143098B42EF
:1002D00001D34B01C01A524103098B4201D30B01D8
:1002E000C01A5241C3088B4201D3CB00C01A5241FD
:1002F00083088B4201D38B00C01A5241D9D24308E4
:100300008B4201D34B00C01A5241411A00D2014620
:10031000634652415B10104601D34042002B00D58A
:100320004942704763465B1000D3404201B500204C
:10033000C046C04602BD704770477047754600F022
:1003400025F8AE46050069465346C008C0008546FC
:1003500018B020B5FFF710FF60BC00274908B6466B
:100360000026C0C5C0C5C0C5C0C5C0C5C0C5C0C5C4
:10037000C0C5403D49008D46704710B50446C04693
:10038000C0462046FFF7E7FE10BD0000004870475A
:100390003801002001491820ABBEFEE7260002000C
:1003A0007047000010B5024800F094F810BD00003E
:1003B000DC00002010B50446006C0949800880006C
:1003C00040186064207814210838FFF707FF0449BB
:1003D0008031A164C106C90E01208840E06410BDCF
:1003E000000802400179084B8906890E8A00D2185C
:1003F0000265054A4432491E42658A07920F01216F
:100400009140816570470000FC080240F0B5846CA3
:10041000C56C6560046D002C02D0446D856D65600F
:100420000B4C6568066C1C273E400127B7403D43D6
:100430006560046863608368102B036803D099606B
:100440000068C260F0BD9A600068C160F0BD000045
:100450000000024072B6FEE7F8B5002401462031E4
:100460004A79022A03D00421C16301242DE00268E5
:1004700013685B085B001360026813680E25AB43CA
:100480001360426C1368FF250135AB431360104ABB
:100490005568066C1C231E4001231F46B7403D4390
:1004A0005560826CC56C5560026D002A06D01668D6
:1004B0001D02AE431660426D856D55604B71002282
:1004C0000A71816B002900D088472046F8BD0000E2
:1004D00000000240F0B42C490C6802681368056CF7
:1004E0001C273D400426AE40264211D05E070FD5A2
:1004F00013689B0603D4146804239C4314604B6860
:10050000046C04223C40A24013434B60016B1CE08E
:100510000227AF40064627402036002F19D09F07FC
:1005200017D513689B0605D413680A24A3431360E8
:10053000012272714B68046C1C2214400222A240FA
:1005400013434B6000213171C16A00291AD0F0BCFD
:1005500008470827AF40274214D01B0712D513685D
:100560000E24A34313604B68046C1C221440012228
:100570001546A5402B434B60C26372710021317157
:10058000416BE2E7F0BC70470000024070B5040028
:100590003FD02548256814212818FFF71FFE80004A
:1005A0002064022026462036707128681F490840C2
:1005B0002860E168A0686269084321691143084323
:1005C000A1690843E1690843216A084321680A6870
:1005D000104308602046FFF7EDFE0121A068890363
:1005E0000025884200D165602079616C8006800E0C
:1005F0000860A06CE16C41606068401E03280AD866
:100600002046FFF7EFFE206D0560606DA16D416033
:1006100004E0012070BD25656565A565E5630120E1
:1006200070713571002070BDF8FFFDBF0F80FFFFB6
:10063000F8B504468C4620300179002501290BD0FD
:100640000126067141790027012907D08021E16345
:10065000077101252846F8BD0220F8BD022141712D
:10066000E763206801684908490001606146204647
:10067000FFF7CCFE206B00282068016801D00E2215
:1006800005E0042291430160206801680A221143B9
:100690000160606C0168CA03074902D502680A4319
:1006A0000260206D002802D002680A4302602068C0
:1006B000016831430160CDE70001000070B50446D8
:1006C00000F0C2F80546601C02D0044800782418E7
:1006D00000F0BAF8401BA042FAD370BD040000201D
:1006E000F0B5002303249AE02A4601259D402A40C4
:1006F0007ED00E79B607B60F012E01D0022E16D18C
:1007000086682746B4465E00B646B7406646BE4396
:10071000B446CF687646B74066463743876046683A
:10072000AE430D79ED06ED0F9D40354345600D79E3
:10073000ED43AD0708D0C5685F002646BE40B5430F
:100740008E68BE402E43C6600D79AD07AD0F022DF9
:100750000ED1DD08AD002D18AC462D6A5E07F60EF1
:100760000F27B740BD430F69B7402F4365462F623F
:1007700005685F002646BE40B5430E79B607B60F42
:10078000BE402E4306604D68AD03AD0F46D09E08B7
:10079000264DB6007519AC462D6E9E07F60E0F2736
:1007A000B740BD4305273F07B84201D100270FE0FE
:1007B0001F4FB84201D101270AE01E4FB84201D1B4
:1007C000022705E01C4FB84201D1032700E00527AE
:1007D000B7402F43154D664637662D684E689543E2
:1007E000F60200D51543114F3D607D68954300E04A
:1007F00014E04E68B60200D515437D600B4D803580
:100800006E684F689643BF0300D516436E602E682E
:100810004F689643FF0300D516432E605B1C0A68A1
:100820001546DA4000D05FE7F0BD00000018024036
:100830000004005000080050000C0050002A01D0B5
:10084000816170478162704701488068704700008D
:10085000040000200248816802788918816070478E
:100860000400002010B508480024016882151143D7
:100870000160032000F00AF8002801D0012401E003
:1008800000F028F8204610BD0020024070B50F4E41
:10089000002431780546002915D07D20C000FFF7DF
:1008A0009DFC01460A480068FFF798FC00F0A2FE94
:1008B000002808D1042D06D200222946401E00F04F
:1008C0002BF8756000E00124204670BD0400002074
:1008D0001000002008B50948016801221143016099
:1008E00000681040009005484038C26B01040A437C
:1008F000C263C06B0840009008BD00004010024079
:10090000002805DBC106C90E0120884001490860A6
:100910007047000000E100E010B501F03BF910BDA8
:1009200010B50F4C2168032252029143014321600C
:10093000C11FFF39FA390ED10A4806210068484321
:100940000949FFF74BFC401C02E0002805D0401E7F
:1009500061694905F9D4002010BD032010BD0000D5
:10096000007000401000002040420F00F8B50F4614
:10097000060043D04D4D28684007400FB84213D2BF
:100980002868C008C00038432860FFF75DFF0446B0
:1009900005E0FFF759FF011B4548814261D82868EF
:1009A0004007400FB842F4D13068424C81070DD562
:1009B000400704D5A068072109030843A060A06888
:1009C0000F2109028843B1680843A0603078C0074E
:1009D00032D0706801280AD002280BD000280FD02E
:1009E0003449403103280ED0C969890704E02168E1
:1009F000890301E021688901002906DB0120F8BD97
:100A000021684905F8E7096AEFE7A168C908C90044
:100A10000143A160FFF718FF009006E0FFF714FF05
:100A20000099411A224881421BD8A0683821084009
:100A30007168C9008842F1D128684007400FB84268
:100A400017D91A480168C908C90039430160FFF77E
:100A5000FBFE054607E0FFF7F7FE411B1448814205
:100A600001D90320F8BD114800684007400FB84283
:100A7000F1D13078400706D5A068072109038843E3
:100A8000F1680843A06000F01DF8A1683C228909C4
:100A90001140094A515CC906C90EC840074908609F
:100AA00007480068FFF7F2FEF8BD00000020024092
:100AB0008813000000100240581C0008100000209D
:100AC0000800002010B5204CA068204A8006400F86
:100AD00016D0A0688006410F501001290FD0A168E0
:100AE0008906490F022912D0A0688006400F042809
:100AF00023D0A0688006400F032821D0002010BD1D
:100B0000206801218004400F8140104612E0E16816
:100B10008B07E1689B0F4906490F491C032B00D046
:100B20001046FFF75BFBE1684904490E4843E16862
:100B3000490F491CFFF752FB10BD0120C00310BD37
:100B40007D20000210BD0000001002400024F400CF
:100B5000F8B504007ED020783827C007E94D00287A
:100B600046D0A868E96838408907890F102802D064
:100B700008280BD001E0032908D001206268000496
:100B800082420AD129680143296015E02868800360
:100B90002ED560680028DDD02AE0052301211B0442
:100BA00089049A422A6802D10A432A60EAE782430A
:100BB0002A60286888432860606800280CD0FFF706
:100BC00043FE064604E0FFF73FFE801B642873D80F
:100BD00028688003F7D50BE0FFF736FE064604E0F1
:100BE000FFF732FE801B6428F1D828688003F7D411
:100BF0002078800769D5A868E96838408A07072106
:100C0000920FC902102802D0002813D001E0022A56
:100C100010D0E068002846D028688843216908433E
:100C200028602868FF21013108432860FFF70CFE87
:100C300006462CE02A68520502D5E268002A89D0CF
:100C40006A687F231B029A4363691B021A436A6026
:100C5000002800E08DE00ED1286888432169084310
:100C60002860286801218004400F8140A648FFF7D2
:100C7000B5FAA6490860A6480068FFF707FE0028F5
:100C800077D122E0FFF7E0FD801B02289FD828687B
:100C90004005F7D568687F21090288436169090228
:100CA0000843686011E02968FF2001308143296012
:100CB000FFF7CAFD064605E098E0FFF7C5FD801B7B
:100CC000022884D828684005F7D42078914E000780
:100CD0002ED5A8688006400F03280AD0A0690028F6
:100CE000306A16D0012108433062FFF7ADFD074698
:100CF0000BE0306A80071BD5A06900289FD017E061
:100D0000FFF7A2FDC01B022870D8306A8007F7D514
:100D10000EE0400840003062FFF796FD074604E011
:100D2000FFF792FDC01B022860D8306A8007F7D415
:100D3000207840076CD5A86800278006400F04285B
:100D400018D0E86BC00008D4E96B0120000701430C
:100D5000E963E96B0140012700916F480168C9050B
:100D600019D40168821511430160FFF76DFD0090F1
:100D70000DE083E0F06980074AD5A06800287DD0A7
:100D800046E0FFF761FD0099401A02282ED862481C
:100D90000068C005F5D5A168012910D004200529F7
:100DA000F16911D049084900F161F1698143F161AC
:100DB000A068002816D0FFF747FD00900EE0F0690C
:100DC00001210843F061F3E70143F161F7E7FFF721
:100DD0003BFD0099411A5148814265D8F06980076E
:100DE000F5D50EE0FFF730FD009007E05CE0FFF77F
:100DF0002BFD0099411A4948814255D8F069800776
:100E0000F5D4002F04D0E96B012000078143E9638A
:100E1000E069002873D0A9688906490F02294DD0DE
:100E2000012636060228286805D0B0432860FFF75F
:100E30000BFD04463AE0B0432860FFF705FD074686
:100E400004E0FFF701FDC01B02282DD828688001AF
:100E5000F7D4616A206AA26A0843E16A1202114368
:100E60000843216B0843E9682D4A11400843E860B4
:100E7000286830432860E868012100E03DE0090768
:100E80000843E860FFF7E0FC044604E0FFF7DCFC01
:100E9000001B022808D828688001F7D52FE0FFF74B
:100EA000D3FC001B022801D90320F8BD286880016B
:100EB000F5D4E8681B490840E86020E00128F4D038
:100EC000E868226A8107890F914216D17021626A0F
:100ED0000140914211D17F21A26A09020140120210
:100EE00091420AD11F214904E26A0140914204D192
:100EF000400F216B4007884201D00120F8BD00203F
:100F0000F8BD0000001002400024F4001000002092
:100F100008000020401002400070004088130000CC
:100F20008C80C11FFCFFFEEF70470000F8B5016820
:100F300004464A688868C043430606D5C30704D1FF
:100F4000D3435B0601D4E16C05E0830706D4D343A9
:100F50001B0603D4216D20468847F8BD830603D5C0
:100F6000430601D5C305F8D4D3439B06F5D42346E5
:100F700045064033002D09DB5D7F032D48D0256EEB
:100F8000042635432566CD688D68009586060127C1
:100F90004025002E07DB266E3E4326668E680096AF
:100FA0000E68AE430E60C00506D4206E08210843CB
:100FB0002066206880680090206E0028CDD02068D0
:100FC0004168E026B14341605F77900701D4D007C4
:100FD00022D020684168890889004160A06D104EC8
:100FE000002808D08663A06DFFF736FA002802D0EB
:100FF000206E28432066606D0028AED08663606D49
:10100000FFF72AFA0028A8D0206E28432066F8BDF2
:10101000C86888680090F8BD2046FFF785FFF8BDD6
:101020007D170008F8B504000CD0606A0025002880
:101030000AD02561656126464036A562707F00288A
:1010400008D00BE00120F8BD6168C81FFD38F2D060
:10105000E561F0E73577204600F05CF80222727710
:10106000206801684023994301600723E1681B025F
:10107000994201D9002001E0012000030F273F021F
:10108000B94202D0994200D0A562FF2361680533BE
:1010900019402127A368BF023B401943236913402D
:1010A000227D1943D207D20F11430123A2695B02AB
:1010B0001A401143E26938231A401143226A8023FF
:1010C0001A401143A26A9B011A4011432268116021
:1010D000A1690422090C1140626A10231A401143CD
:1010E000626B08231A4011430F23E2681B021A4067
:1010F000114301221203104001432068416020681F
:10110000C16952109143C1612566012070770020AA
:10111000F8BD0000F0B587B0064614216846FFF719
:101120005BF8404B326800243F49012002259A4277
:1011300021D13D4A4032166803031E4316601268EF
:101140001A4005924A6B02434A63486B0294C007F7
:10115000C00F0590E020009005200394694601959A
:1011600004940007FFF7BCFA002211461920FFF78C
:10117000D3FB192052E02D4B9A4251D1CB6B121464
:101180001343CB63CB6B134005934A6B2A434A63EB
:101190004A6B2A4005924A6B02434A63496B802797
:1011A000C907C90F00970591049002940195039413
:1011B00069461F48FFF794FAB80000900520049094
:1011C00002940195039469461948FFF789FA0920AA
:1011D0000090052002940394694601950494000749
:1011E000FFF77EFA144D13482860AC60EC606C6128
:1011F0002F611220AC61686020202C62E8612846D3
:10120000FFF7C4F9002801D0FFF724F9B5650022E3
:1012100011461A20AE62FFF77FFB1A20FFF770FB22
:1012200007B0F0BD0030014000100240003800401F
:101230000004005008000240DC000020F8B505461C
:1012400004464035687F012843D1002906D0002A92
:1012500004D0A0680423002802D005E00120F8BDD6
:101260006668F71FFD3F2DD02E7F012E31D001265D
:101270002E776B77002626662164AA80EA80E664D2
:101280002665A687E6870121C9034027884208D141
:1012900020680168B9430160206801683A029143FF
:1012A000016020684268012149038A4342600723A4
:1012B000E2681B0248109A420DD921684A688243AD
:1012C0004A6021E06B7713460A46204600F06AF830
:1012D000F8BD0220F8BD2268536803435360A26D35
:1012E000012392699B029A420ED12268536883437C
:1012F0005360E888C007206842681FD00A434260F4
:10130000E8884008401CE880A16D19480863A16D79
:101310001848C862A16D18484863A06D8663EB88C1
:101320002168226C0C31A06DFFF782F900280AD0E9
:10133000206E1021084320662E778FE78A43426093
:10134000E8884008DFE720680168490602D40168A0
:10135000394301602E7720684168202211434160A3
:10136000206841680122114341600020F8BD00005F
:10137000B1170008C51700088F17000810B50068DE
:101380000449884204D1012203490448FFF756FF6B
:1013900010BD00000038004001000020780000204F
:1013A00070470000F8B5054604464035687F66681A
:1013B000012807D0F71FFD3F32D1A668002E2FD19C
:1013C00004282DD1002929D0002A27D0002B25D090
:1013D000287F012824D001202877687F042801D0A5
:1013E0000520687700262666A163A387E387226429
:1013F000AB80EB80E66426652068416803225203D7
:101400009143416007210120E268090200038A42FA
:1014100021684A6806D982434A602BE00120F8BD62
:101420000220F8BD02434A60616D8A690121890288
:101430008A420BD1A28FD30723683A4A5F6832D021
:1014400017435F60E28F5208521CE287A26D9269D7
:101450008A420FD121684A6882434A60E888C107FE
:10146000216831484A6823D002434A60E88840082E
:10147000401CE880687F04281FD0A16D2B480863BA
:101480002B48A16DC862A16D2A484863A06D866390
:10149000EB882168226C0C31A06DFFF7C9F810278A
:1014A000002825D10EE097435F60E28F5208CCE719
:1014B00082434A60E8884008DBE7A16D1E48086364
:1014C0001E48DEE720684168012211434160606DDB
:1014D0000663606DC662606D4663606D8663E38F10
:1014E0002268A16B0C32606DFFF7A2F8002804D0CF
:1014F000206E384320662E7790E720680168490601
:1015000003D401684022114301602E7720684168AE
:10151000202211434160206841680222114341604A
:101520000020F8BD0040000000200000BB170008AC
:10153000351800088F170008B1170008C5170008F4
:1015400070B507263602C568002907D0002A05D0E5
:10155000034640335C7F012C16D101E0012070BDB1
:101560001C7F012C10D001241C7703245C770024FD
:10157000046681638287C28704649C80DC80C464C3
:10158000B54203D9114902E0022070BD104901653E
:1015900001258268ED034021AA4208D1026815683E
:1015A0008D431560026815680E02354315600268A8
:1015B00015686D0602D415680D4315601C77006828
:1015C0004168A02211434160002070BD57190008F6
:1015D0007919000810B500680449884205D1052032
:1015E000012210210007FFF729F910BD003001404A
:1015F00070477047094910B5401E884201D9012043
:1016000010BD074C60610321081F00F0C3FA0020E1
:10161000A06107202061002010BD0000FFFFFF0037
:1016200000E000E0FEE7000030B587B01421684616
:10163000FEF7D2FD1048426B02210A434263426B1F
:101640000A400592416B012421434163406B05250B
:1016500020402D070590002210212846FFF7EEF8C4
:1016600000211020029103910090019469462846C0
:10167000FFF736F807B030BD0010024010B5114832
:101680000F490160FF21053141600021072281607F
:1016900012020161C2604161C16101220162520214
:1016A0004162826181620722C26201630821416353
:1016B000FFF7B8FC002801D072B6FEE710BD0000AD
:1016C000003001401400002010B50E480C490160A4
:1016D00000214160816001614161816107220162F5
:1016E00012024162C260816207220163C2624163E9
:1016F000FFF798FC002801D072B6FEE710BD00008D
:101700000038004078000020FEE7704710B502481E
:10171000FFF70CFC10BD00001400002010B50248BB
:10172000FFF704FC10BD00007800002038B5044627
:10173000FFF78AF8024620684168A0239943416078
:101740006421204600F0E1F8002803D0206E20211B
:1017500008432066A068002803D12068C16880681B
:10176000009001215D200155206E0028204602D006
:10177000FFF7DAFB38BDFFF72DFF38BD10B5806AE3
:10178000002146221152C187FFF7CEFB10BD10B5D4
:10179000806A01684A68920892004A60016E1022CD
:1017A0001143016601225D210A54FFF7BDFB10BD04
:1017B00010B5806AFFF7F4FD10BD10B5806AFFF721
:1017C00018FF10BD70B50546846AFFF73DF8024664
:1017D00028680068800629D4206841682025A9432C
:1017E0004160A068002803D16068C11FFD3918D08E
:1017F000206841684908490041606421204600F0A2
:1018000048F8002800D02566002120464030C180DD
:1018100001214177206E002808D02046FFF784FB85
:1018200070BD2068416889088900E5E72046FFF718
:10183000A5FD70BD70B50546846AFFF705F8024640
:1018400028680068800620D4206841682025A943C4
:1018500041606421204600F058F8002802D0206E34
:10186000284320662068416889088900416000217A
:10187000E18720464030C18001214177206E002859
:1018800003D02046FFF750FB70BD2046FFF7B0FEA7
:1018900070BDF7B504464068FF26053682B0154690
:1018A000B0420CD10121A068C903884202D049117D
:1018B000884204D12068016840229143016000956C
:1018C000002280212046039B00F0D4F82027002826
:1018D00013D16068B04216D1A068B902884202D024
:1018E000491188420FD10321009500224902204668
:1018F000039B00F053F8002805D0206E3843206683
:10190000032005B0F0BD0020FBE7F8B50F460B46FD
:1019100015460092032104460022C90200F03EF859
:101920002026002812D13B46002280212046009527
:1019300000F0A0F8002809D103213B46002249020B
:101940002046009500F02AF8002803D0206E30438E
:1019500020660320F8BD10B5816B02680988D1604C
:10196000816B891C8163C18F491EC187C18F00298A
:1019700001D1FFF7DBFE10BD10B5816B026809785D
:101980001173816B491C8163C18F491EC187C18F4F
:10199000002901D1FFF7CAFE10BD0000FFB585B0D8
:1019A0000E460446002069460E9D17460871FEF754
:1019B0004BFF411B0898451AFEF746FF039020682D
:1019C00023210C3002902A4800684843000D6843E8
:1019D00019E003204002864206D1002F04D102986C
:1019E00001786846017100790898401C0CD0FEF718
:1019F0002BFF0399401AA8420ED2002D0CD000985C
:101A0000002833D0401E0090206880683040B842E3
:101A1000DFD1002009B0F0BD20684168E022914389
:101A200041606068C11FFD390CD10121A068C90364
:101A3000884202D04911884204D1206801684022BE
:101A4000914301600120A16A4003814207D12168CE
:101A50000A6882430A6021680A6802430A6001201A
:101A600040346077002020770320D3E70025CBE7C0
:101A700010000020FFB581B01E4604460A9DFEF707
:101A8000E3FE401B351AFEF7DFFE074626480068D6
:101A90004001000D68430CE0701C0BD0FEF7D4FE33
:101AA000C01BA84212D2002D10D00098002837D0B9
:101AB000401E0090206881680298884332D000213F
:101AC00003988142E8D1002005B0F0BD206841684C
:101AD000E022914341606068C11FFD390CD10121B2
:101AE000A068C903884202D04911884204D1206805
:101AF00001684022914301600120A16A40038142B4
:101B000007D121680A6882430A6021680A68024393
:101B10000A60012040346077002020770320D3E75B
:101B20000025C7E70121CBE710000020704710B562
:101B3000FEF790FE10BD10B592B034216846FEF756
:101B40004BFB002401200D940E940F94400210943E
:101B5000FEF7E6FE02200090C001039040200590B1
:101B6000049407946846FEF7F3FF002801D072B68C
:101B7000FEE707200D900E940F94002110940DA8FD
:101B8000FEF7F4FE002801D072B6FEE712B010BDD9
:101B9000704700008307FF22DB0E9A408907090E79
:101BA0009940002808DB830809489B001B18186827
:101BB00090430843186070470007000F08388308F7
:101BC00004489B001B18D86990430843D8617047AC
:101BD00000E400E000ED00E008B5FEF743FEFFF78B
:101BE000AAFFFFF721FD1948816B01221143816390
:101BF000806B10400022009011460920FEF78CFEF9
:101C00000920FEF77DFEFFF739FDFFF75DFD01229C
:101C10000F491048FFF712FB0D4C05252D07641ED8
:101C20007D26F600002210212846FEF707FE08490F
:101C300008480122491E6438FFF782FC21783046AB
:101C4000491C2170FEF73AFDECE70000001002404D
:101C500001000020780000200000000000000000CB
:101C60000000000000000000000000000000000074
:101C70000000000000000000010000000200000061
:101C80000300000004000000060000000700000040
:101C90000800000009000000B81C00080000002037
:101CA0001400000004010008CC1C000814000020EF
:101CB000840700002001000820000000010000004F
:0C1CC00004000000000000000024F400FC
:04000005080000C12E
:00000001FF
