:020000040800F2
:10000000A0070020650100088D150008A91400084C
:1000100000000000000000000000000000000000E0
:10002000000000000000000000000000FD190008B2
:1000300000000000000000008F150008FF190008F4
:100040007701000800000000770100087701000830
:1000500077010008770100087701000877010008A0
:1000600000000000A50300087701000877010008E0
:100070007701000877010008770100080000000000
:100080007701000800000000000000007701000870
:1000900000000000770100087701000877010008E0
:1000A0007701000891150008A115000877010008E4
:1000B00077010008000000000000000000000000C0
:1000C00000F002F800F03EF80CA030C80838241800
:1000D0002D18A246671EAB4654465D46AC4201D180
:1000E00000F030F87E460F3E0FCCB6460126334274
:1000F00000D0FB1AA246AB46334318477C1A0000D7
:100100009C1A0000103A02D378C878C1FAD8520776
:1001100001D330C830C101D504680C6070470000BD
:100120000023002400250026103A01D378C1FBD813
:10013000520700D330C100D50B6070471FB51FBDFB
:1001400010B510BD00F0FAF81146FFF7F7FF01F007
:10015000ABFC00F012F903B4FFF7F2FF03BC00F0B0
:1001600019F900000748804707480047FEE7FEE707
:10017000FEE7FEE7FEE7FEE704480549054A064BB1
:1001800070470000611A0008C1000008A0010020AB
:10019000A0070020A0030020A003002001E004C06D
:1001A000091F0429FBD28B0701D50280801CC907D7
:1001B00000D00270704700290BD0C30702D0027034
:1001C000401C491E022904D3830702D50280801CEB
:1001D000891EE3E70022EEE70022DFE700220309A1
:1001E0008B422CD3030A8B4211D300239C464EE052
:1001F00003460B433CD4002243088B4231D303090E
:100200008B421CD3030A8B4201D394463FE0C309BF
:100210008B4201D3CB01C01A524183098B4201D3D7
:100220008B01C01A524143098B4201D34B01C01AC2
:10023000524103098B4201D30B01C01A5241C3083A
:100240008B4201D3CB00C01A524183088B4201D3A9
:100250008B00C01A524143088B4201D34B00C01A95
:100260005241411A00D201465241104670475DE0AA
:10027000CA0F00D04942031000D34042534000222D
:100280009C4603098B422DD3030A8B4212D3FC22D6
:10029000890112BA030A8B420CD3890192118B4255
:1002A00008D3890192118B4204D389013AD092116B
:1002B00000E08909C3098B4201D3CB01C01A524126
:1002C00083098B4201D38B01C01A524143098B42EF
:1002D00001D34B01C01A524103098B4201D30B01D8
:1002E000C01A5241C3088B4201D3CB00C01A5241FD
:1002F00083088B4201D38B00C01A5241D9D24308E4
:100300008B4201D34B00C01A5241411A00D2014620
:10031000634652415B10104601D34042002B00D58A
:100320004942704763465B1000D3404201B500204C
:10033000C046C04602BD704770477047754600F022
:1003400025F8AE46050069465346C008C0008546FC
:1003500018B020B5FFF710FF60BC00274908B6466B
:100360000026C0C5C0C5C0C5C0C5C0C5C0C5C0C5C4
:10037000C0C5403D49008D46704710B50446C04693
:10038000C0462046FFF7E7FE10BD0000004870475A
:100390003C01002001491820ABBEFEE72600020008
:1003A0007047000010B5024800F070F810BD000062
:1003B000E000002010B50446006C09498008800068
:1003C00040186064207814210838FFF707FF0449BB
:1003D0008031A164C106C90E01208840E06410BDCF
:1003E000000802400179084B8906890E8A00D2185C
:1003F0000265054A4432491E42658A07920F01216F
:100400009140816570470000FC08024072B6FEE72B
:10041000F8B50024014620314A79022A03D004218C
:10042000C16301242DE0026813685B085B00136060
:10043000026813680E25AB431360426C1368FF25F6
:100440000135AB431360104A5568066C1C231E40EF
:1004500001231F46B7403D435560826CC56C556013
:10046000026D002A06D016681D02AE431660426D6A
:10047000856D55604B7100220A71816B002900D097
:1004800088472046F8BD000000000240F0B42C4927
:100490000C6802681368056C1C273D400426AE40BA
:1004A000264211D05E070FD513689B0603D414684B
:1004B00004239C4314604B68046C04223C40A2401B
:1004C00013434B60016B1CE00227AF4006462740F8
:1004D0002036002F19D09F0717D513689B0605D427
:1004E00013680A24A3431360012272714B68046CE1
:1004F0001C2214400222A24013434B6000213171A0
:10050000C16A00291AD0F0BC08470827AF4027422B
:1005100014D01B0712D513680E24A34313604B6835
:10052000046C1C22144001221546A5402B434B604D
:10053000C263727100213171416BE2E7F0BC704718
:100540000000024070B504003FD025482568142102
:100550002818FFF743FE800020640220264620363C
:10056000707128681F4908402860E168A0686269C6
:100570000843216911430843A1690843E16908431D
:10058000216A084321680A68104308602046FFF783
:1005900011FF0121A06889030025884200D1656010
:1005A0002079616C8006800E0860A06CE16C41606F
:1005B0006068401E03280AD82046FFF713FF206D0D
:1005C0000560606DA16D416004E0012070BD25658E
:1005D0006565A565E563012070713571002070BD0A
:1005E000F8FFFDBF0F80FFFF70B5044600F0C2F8B2
:1005F0000546601C02D004480078241800F0BAF8C0
:10060000401BA042FAD370BD08000020F0B50023C3
:1006100003249AE02A4601259D402A407ED00E7987
:10062000B607B60F012E01D0022E16D186682746D6
:10063000B4465E00B646B7406646BE43B446CF6891
:100640007646B7406646374387604668AE430D79C5
:10065000ED06ED0F9D40354345600D79ED43AD0747
:1006600008D0C5685F002646BE40B5438E68BE40D0
:100670002E43C6600D79AD07AD0F022D0ED1DD08FA
:10068000AD002D18AC462D6A5E07F60E0F27B74059
:10069000BD430F69B7402F4365462F6205685F0071
:1006A0002646BE40B5430E79B607B60FBE402E4370
:1006B00006604D68AD03AD0F46D09E08264DB600CE
:1006C0007519AC462D6E9E07F60E0F27B740BD4339
:1006D00005273F07B84201D100270FE01F4FB8425E
:1006E00001D101270AE01E4FB84201D1022705E0DF
:1006F0001C4FB84201D1032700E00527B7402F4324
:10070000154D664637662D684E689543F60200D54E
:100710001543114F3D607D68954300E014E04E683D
:10072000B60200D515437D600B4D80356E684F686D
:100730009643BF0300D516436E602E684F689643FC
:10074000FF0300D516432E605B1C0A681546DA408D
:1007500000D05FE7F0BD0000001802400004005028
:1007600000080050000C0050002A01D08161704741
:1007700081627047014880687047000008000020CF
:10078000024881680278891881607047080000205B
:1007900010B5084800240168821511430160032048
:1007A00000F00AF8002801D0012401E000F028F848
:1007B000204610BD0020024070B50F4E0024317855
:1007C0000546002915D07D20C000FFF707FD014632
:1007D0000A480068FFF702FD00F04EFE002808D12D
:1007E000042D06D200222946401E00F02BF8756029
:1007F00000E00124204670BD080000201400002005
:1008000008B50948016801221143016000681040E1
:10081000009005484038C26B01040A43C263C06BB4
:100820000840009008BD000040100240002805DB91
:10083000C106C90E012088400149086070470000C8
:1008400000E100E010B501F00DF910BD10B50F4C3E
:10085000216803225202914301432160C11FFF39E5
:10086000FA390ED10A480621006848430949FFF7C2
:10087000B5FC401C02E0002805D0401E6169490516
:10088000F9D4002010BD032010BD0000007000400E
:100890001400002040420F00F8B50F46060043D078
:1008A0004D4D28684007400FB84213D22868C00851
:1008B000C00038432860FFF75DFF044605E0FFF7FE
:1008C00059FF011B4548814261D828684007400F05
:1008D000B842F4D13068424C81070DD5400704D5A9
:1008E000A068072109030843A060A0680F2109023E
:1008F0008843B1680843A0603078C00732D0706880
:1009000001280AD002280BD000280FD034494031EA
:1009100003280ED0C969890704E02168890301E032
:1009200021688901002906DB0120F8BD21684905FD
:10093000F8E7096AEFE7A168C908C9000143A160A7
:10094000FFF718FF009006E0FFF714FF0099411A27
:10095000224881421BD8A068382108407168C9002C
:100960008842F1D128684007400FB84217D91A4889
:100970000168C908C90039430160FFF7FBFE05465D
:1009800007E0FFF7F7FE411B1448814201D903201D
:10099000F8BD114800684007400FB842F1D13078E7
:1009A000400706D5A068072109038843F16808437A
:1009B000A06000F01DF8A1683C2289091140094A95
:1009C000515CC906C90EC84007490860074800685D
:1009D000FFF7F2FEF8BD000000200240881300007F
:1009E00000100240381B0008140000200C000020FA
:1009F00010B5204CA068204A8006400F16D0A06891
:100A00008006410F501001290FD0A1688906490FB7
:100A1000022912D0A0688006400F042823D0A068C5
:100A20008006400F032821D0002010BD206801213E
:100A30008004400F8140104612E0E1688B07E168B6
:100A40009B0F4906490F491C032B00D01046FFF7A6
:100A5000C5FBE1684904490E4843E168490F491C58
:100A6000FFF7BCFB10BD0120C00310BD7D200002BC
:100A700010BD0000001002400024F400F8B504008E
:100A80007ED020783827C007E94D002846D0A868D6
:100A9000E96838408907890F102802D008280BD050
:100AA00001E0032908D001206268000482420AD1D3
:100AB00029680143296015E0286880032ED5606805
:100AC0000028DDD02AE0052301211B0489049A4275
:100AD0002A6802D10A432A60EAE782432A6028682A
:100AE00088432860606800280CD0FFF743FE064664
:100AF00004E0FFF73FFE801B642873D8286880035A
:100B0000F7D50BE0FFF736FE064604E0FFF732FEAE
:100B1000801B6428F1D828688003F7D420788007E8
:100B200069D5A868E96838408A070721920FC90289
:100B3000102802D0002813D001E0022A10D0E0686B
:100B4000002846D02868884321690843286028681F
:100B5000FF21013108432860FFF70CFE06462CE018
:100B60002A68520502D5E268002A89D06A687F2384
:100B70001B029A4363691B021A436A60002800E063
:100B80008DE00ED1286888432169084328602868D1
:100B900001218004400F8140A648FFF71FFBA649B2
:100BA0000860A6480068FFF707FE002877D122E01A
:100BB000FFF7E0FD801B02289FD828684005F7D585
:100BC00068687F21090288436169090208436860F7
:100BD00011E02968FF20013081432960FFF7CAFD39
:100BE000064605E098E0FFF7C5FD801B022884D883
:100BF00028684005F7D42078914E00072ED5A868C4
:100C00008006400F03280AD0A0690028306A16D059
:100C1000012108433062FFF7ADFD07460BE0306A63
:100C200080071BD5A06900289FD017E0FFF7A2FD21
:100C3000C01B022870D8306A8007F7D50EE0400844
:100C400040003062FFF796FD074604E0FFF792FD93
:100C5000C01B022860D8306A8007F7D4207840078C
:100C60006CD5A86800278006400F042818D0E86BD0
:100C7000C00008D4E96B012000070143E963E96B78
:100C80000140012700916F480168C90519D4016826
:100C9000821511430160FFF76DFD00900DE083E0C8
:100CA000F06980074AD5A06800287DD046E0FFF7AC
:100CB00061FD0099401A02282ED862480068C005DC
:100CC000F5D5A168012910D004200529F16911D0BA
:100CD00049084900F161F1698143F161A068002888
:100CE00016D0FFF747FD00900EE0F06901210843A0
:100CF000F061F3E70143F161F7E7FFF73BFD00998E
:100D0000411A5148814265D8F0698007F5D50EE057
:100D1000FFF730FD009007E05CE0FFF72BFD009946
:100D2000411A4948814255D8F0698007F5D4002F0F
:100D300004D0E96B012000078143E963E0690028E2
:100D400073D0A9688906490F02294DD001263606BD
:100D50000228286805D0B0432860FFF70BFD044641
:100D60003AE0B0432860FFF705FD074604E0FFF7CF
:100D700001FDC01B02282DD828688001F7D4616AC4
:100D8000206AA26A0843E16A120211430843216BF8
:100D90000843E9682D4A11400843E8602868304359
:100DA0002860E868012100E03DE009070843E860A9
:100DB000FFF7E0FC044604E0FFF7DCFC001B022820
:100DC00008D828688001F7D52FE0FFF7D3FC001B77
:100DD000022801D90320F8BD28688001F5D4E8680D
:100DE0001B490840E86020E00128F4D0E868226A46
:100DF0008107890F914216D17021626A01409142A8
:100E000011D17F21A26A09020140120291420AD146
:100E10001F214904E26A0140914204D1400F216B35
:100E20004007884201D00120F8BD0020F8BD000035
:100E3000001002400024F400140000200C000020E8
:100E40004010024000700040881300008C80C11FD9
:100E5000FCFFFEEF70470000F8B5016804464A68E1
:100E60008868C043430606D5C30704D1D3435B0655
:100E700001D4E16C05E0830706D4D3431B0603D4F9
:100E8000216D20468847F8BD830603D5430601D56A
:100E9000C305F8D4D3439B06F5D423464506403317
:100EA000002D09DB5D7F032D48D0256E04263543D8
:100EB0002566CD688D680095860601274025002EA1
:100EC00007DB266E3E4326668E6800960E68AE43AC
:100ED0000E60C00506D4206E0821084320662068F5
:100EE00080680090206E0028CDD020684168E02600
:100EF000B14341605F77900701D4D00722D02068CA
:100F00004168890889004160A06D104E002808D012
:100F10008663A06DFFF77CFA002802D0206E28437C
:100F20002066606D0028AED08663606DFFF770FAB2
:100F30000028A8D0206E28432066F8BDC8688868BD
:100F40000090F8BD2046FFF785FFF8BD491700085F
:100F5000F8B504000CD0606A002500280AD025618D
:100F6000656126464036A562707F002808D00BE0F8
:100F70000120F8BD6168C81FFD38F2D0E561F0E7D7
:100F80003577204600F05CF802227277206801680D
:100F90004023994301600723E1681B02994201D96C
:100FA000002001E0012000030F273F02B94202D0D8
:100FB000994200D0A562FF236168053319402127BB
:100FC000A368BF023B40194323691340227D1943A4
:100FD000D207D20F11430123A2695B021A401143C9
:100FE000E26938231A401143226A80231A401143D0
:100FF000A26A9B011A40114322681160A169042270
:10100000090C1140626A10231A401143626B0823D5
:101010001A4011430F23E2681B021A4011430122B8
:10102000120310400143206841602068C1695210DA
:101030009143C1612566012070770020F8BD000052
:10104000F0B587B0064614216846FFF7C5F8404B57
:10105000326800243F49012002259A4221D13D4AAD
:101060004032166803031E43166012681A40059248
:101070004A6B02434A63486B0294C007C00F059055
:10108000E020009005200394694601950494000730
:10109000FFF7BCFA002211461920FFF7D3FB1920F5
:1010A00052E02D4B9A4251D1CB6B12141343CB63B8
:1010B000CB6B134005934A6B2A434A634A6B2A4021
:1010C00005924A6B02434A63496B8027C907C90FDF
:1010D00000970591049002940195039469461F4876
:1010E000FFF794FAB800009005200490029401954F
:1010F000039469461948FFF789FA092000900520F2
:10110000029403946946019504940007FFF77EFA60
:10111000144D13482860AC60EC606C612F611220A4
:10112000AC61686020202C62E8612846FFF70AFA6B
:10113000002801D0FFF76AF9B565002211461A2090
:10114000AE62FFF77FFB1A20FFF770FB07B0F0BD20
:101150000030014000100240003800400004005000
:1011600008000240E0000020F0B51346024640327D
:10117000547FC568012C2DD1002906D0002B04D046
:1011800086680424002E02D005E00120F0BD4668E8
:10119000F71FFD3F19D0167F012E1BD001261677B1
:1011A00054770024046601649380D3808463848729
:1011B000C48707231B02310304659D4203685D68F1
:1011C0000AD98D435D60154909E054770A4600F05D
:1011D000EFF8F0BD0220F0BD0D435D601049C16421
:1011E00001258168ED034023A94208D101680D68FB
:1011F0009D430D6001680D681E02B5430D600168D6
:101200000D686D0602D40D681D430D6014770068EB
:1012100041686022114341600020F0BD1F180008A2
:101220004518000810B500680649884208D10648EC
:101230004168491C4160411C01220448FFF794FFAA
:1012400010BD000000380040000000207C0000209D
:10125000FFB581B017460446FFF78CFA25464035A6
:101260000090687F012837D10298002871D0002FA4
:101270006FD0287F01282FD001202877032068779E
:10128000002626660298A063A787E7872664AE80BB
:10129000EE802665E6640122A068D20340219042D8
:1012A00008D1206802688A430260206802680B0245
:1012B0001A43026020680268520602D402680A4398
:1012C00002600720E1680002814260682AD9002894
:1012D00005D0012F03D021E0022005B0F0BDA06BA6
:1012E00021680088C86006E020688168890709D500
:1012F000A16B0988C160A06B801CA063E08F401EB9
:10130000E0870BE0FFF736FA0099411A0498814212
:1013100002D3401C02D039E0002837D0E08F0028EB
:10132000E2D126E0002801D0012F1FD1A06B216857
:101330000078087306E02068816889070AD5A16BE8
:1013400009780173A06B401CA063E08F401EE0870A
:101350000CE02AE0FFF70EFA0099411A0498814246
:1013600002D3401C02D011E000280FD0E08F0028EB
:10137000E1D12046009A049900F02BFA002801D010
:1013800020202066A068002805D008E001206877AA
:101390002E770320A1E72068C168806800900120B3
:1013A00068772E77206E002897D0012095E70000FF
:1013B000F0B504464034657FC66894464768012D01
:1013C00007D0FA1FFD3A28D18268002A25D1042DC2
:1013D00023D100291FD06246002A1CD0002B1AD02E
:1013E000227F012A19D001222277627F042A01D0AC
:1013F000052262770022026681638387C387614684
:101400000164A380E380072109028E4207D9154DAC
:10141000C564154D06E00120F0BD0220F0BD134D5E
:10142000C564134D056501252D038E4201D8022B9D
:1014300003D301684B68AB4302E001684B682B4360
:101440004B6001680B685B0603D40B6840252B4397
:101450000B60227700684168E02211434160002060
:10146000F0BD0000B11500084D160008E715000892
:101470008116000870470000094910B5401E8842D7
:1014800001D9012010BD074C60610321081F00F045
:10149000E9FA0020A06107202061002010BD0000B3
:1014A000FFFFFF0000E000E0FEE7000030B587B07E
:1014B00014216846FEF790FE1048426B02210A4351
:1014C0004263426B0A400592416B01242143416310
:1014D000406B052520402D0705900022102128464D
:1014E000FFF742F90021102002910391009001942E
:1014F00069462846FFF78AF807B030BD0010024061
:1015000010B511480F490160FF21053141600021EC
:101510000722816012020161C2604161C161012242
:10152000016252024162826181620722C2620163EA
:1015300008214163FFF70CFD002801D072B6FEE7D9
:1015400010BD0000003001401800002010B50E480A
:101550000C4901600021416081600161416181614C
:101560000722016212024162C260816207220163A6
:10157000C2624163FFF7ECFC002801D072B6FEE7BF
:1015800010BD0000003800407C000020FEE77047DE
:1015900010B50248FFF760FC10BD000018000020E5
:1015A00010B50248FFF758FC10BD00007C00002079
:1015B00010B50168C968026C1180016C891C016456
:1015C00001464031CA88521ECA80C988002909D103
:1015D00001684A6840239A434A60C18F002901D1BB
:1015E00000F068F810BD10B501464031CC880268A3
:1015F000036C127B012C1A70026C14D9521C026409
:1016000003681B7B1370026C521C0264CA88921E12
:10161000CA80CA88012A0BD10268536801242403B6
:101620002343536004E0521C0264CA88521ECA80DD
:10163000C988002909D101684A6860239A434A6031
:10164000C18F002901D100F035F810BD10B5816BB4
:1016500002680988D160816B891C8163C18F491E32
:10166000C187C18F00290AD101684A6880239A4343
:101670004A604621095A002901D100F01BF810BD2B
:1016800010B5816B026809781173816B491C816305
:10169000C18F491EC187C18F00290AD101684A68DC
:1016A00080239A434A604621095A002901D100F05B
:1016B00001F810BD70B50446FFF75CF802462068DB
:1016C00041682025A94341606421204600F081F84B
:1016D000002802D0206E28432066226E2046012179
:1016E0004030002A04D041772046FFF7B3FB70BD9D
:1016F000427F4177042A204602D0FFF7BBFE70BD2F
:10170000FFF790FD70BD10B5044600684168602287
:1017100091434160FFF72EF802466421204600F015
:101720001CF8002803D0206E2021084320660121E8
:101730005D200155206E0028204602D0FFF78AFB6D
:1017400010BDFFF76FFD10BD10B5806A0021462265
:101750001152C187FFF77EFB10BDF7B50446406804
:10176000FF26053682B01546B0420CD10121A06893
:10177000C903884202D04911884204D12068016817
:101780004022914301600095002280212046039B66
:1017900000F0D8F82027002813D16068B04216D195
:1017A000A068B902884202D0491188420FD10321B2
:1017B0000095002249022046039B00F057F80028BC
:1017C00005D0206E38432066032005B0F0BD002010
:1017D000FBE7F8B50F460B46154600920321044679
:1017E0000022C90200F042F82026002812D13B4610
:1017F000002280212046009500F0A4F8002809D19D
:1018000003213B46002249022046009500F02EF8B5
:10181000002803D0206E304320660320F8BD10B5A9
:101820000168C968026C1180016C891C0164014661
:101830004031CA88521ECA80C988002901D1FFF7E9
:1018400062FF10BD10B50168097B026C1170016C5C
:10185000491C016401464031CA88521ECA80C988A9
:10186000002901D1FFF74FFF10BD0000FFB585B083
:101870000E460446002069460E9D17460871FEF785
:1018800079FF411B0898451AFEF774FF0390206802
:1018900023210C3002902A4800684843000D684319
:1018A00019E003204002864206D1002F04D102989D
:1018B00001786846017100790898401C0CD0FEF749
:1018C00059FF0399401AA8420ED2002D0CD000985F
:1018D000002833D0401E0090206880683040B84215
:1018E000DFD1002009B0F0BD20684168E0229143BB
:1018F00041606068C11FFD390CD10121A068C90396
:10190000884202D04911884204D1206801684022EF
:10191000914301600120A16A4003814207D12168FF
:101920000A6882430A6021680A6802430A6001204B
:1019300040346077002020770320D3E70025CBE7F1
:1019400014000020FFB581B01E4604460A9DFEF734
:1019500011FF401B351AFEF70DFF074626480068A9
:101960004001000D68430CE0701C0BD0FEF702FF35
:10197000C01BA84212D2002D10D00098002837D0EA
:10198000401E0090206881680298884332D0002170
:1019900003988142E8D1002005B0F0BD206841687D
:1019A000E022914341606068C11FFD390CD10121E3
:1019B000A068C903884202D04911884204D1206836
:1019C00001684022914301600120A16A40038142E5
:1019D00007D121680A6882430A6021680A680243C5
:1019E0000A60012040346077002020770320D3E78D
:1019F0000025C7E70121CBE714000020704710B590
:101A0000FEF7BEFE10BD10B592B034216846FEF759
:101A1000E3FB002401200D940E940F9440021094D7
:101A2000FEF714FF02200090C001039040200590B3
:101A3000049407946846FFF721F8002801D072B695
:101A4000FEE707200D900E940F94002110940DA82E
:101A5000FEF722FF002801D072B6FEE712B010BDDB
:101A6000704700008307FF22DB0E9A408907090EAA
:101A70009940002808DB830809489B001B18186858
:101A800090430843186070470007000F0838830828
:101A900004489B001B18D86990430843D8617047DD
:101AA00000E400E000ED00E008B5FEF771FEFFF78E
:101AB000AAFFFFF7FBFC1D48816B012211438163E4
:101AC000806B10400022009011460920FEF7BAFEFC
:101AD0000920FEF7ABFEFFF713FDFFF737FD0122EC
:101AE00013491448FFF740FB114C052500262D072C
:101AF000F643641E7D27FF00012210212846FEF7D1
:101B000033FE0B490B4833460122491E6438FFF768
:101B10009FFB002210212846FEF726FE2078401C5D
:101B200020703846FEF760FDE6E700000010024036
:101B3000010000207C0000200000000000000000E8
:101B40000000000000000000000000000000000095
:101B50000000000000000000010000000200000082
:101B60000300000004000000060000000700000061
:101B70000800000009000000981B00080000002079
:101B80001800000004010008B01B00081800002025
:101B9000880700002001000841000000000000004C
:101BA0000100000004000000000000000024F40018
:04000005080000C12E
:00000001FF
